:020000040800F2
:100000000040002061010008EB070008ED07000830
:10001000EF070008F1070008F307000800000000E0
:10002000000000000000000000000000F5070008CC
:10003000F707000800000000F9070008FB070008A8
:10004000B1010008B1010008B1010008E90700088A
:10005000B1010008B1010008A5070008B1010008BE
:10006000B1010008B1010008B1010008B1010008A8
:10007000B1010008B1010008B1010008B101000898
:10008000B1010008B1010008B1010008B101000888
:10009000FD070008B1010008B1010008B101000826
:1000A000B1010008B1010008B1010008B101000868
:1000B000B1010008B1010008B1010008B101000858
:1000C000B1010008B1010008B1010008B101000848
:1000D000B1010008B1010008B1010008B101000838
:1000E000B1010008B101000801080008B1010008D1
:1000F000B101000800000000000000000000000046
:0C01000000000000000000005FF808F1A3
:10010C0010B5054C237833B9044B13B10448AFF345
:10011C0000800123237010BD980500200000000012
:10012C00D049000808B5064B1BB106480649AFF389
:10013C0000800648036813B1054B03B1984708BD0E
:10014C0000000000D04900089C0500209805002004
:10015C0000000000002100F004B80D4B5B58435028
:10016C0004310C480C4B42189A42FFF4F6AF0B4A80
:10017C0000F003B8002342F8043B094B9A42FFF409
:10018C00F9AF00F03BFB03F05DFE00F0FBF87047AD
:10019C00F449000800000020980500209805002074
:1001AC00FC080020FFF7FEBF013101EB4202914237
:1001BC000BD0030F092B94BF3033373301F8013CBC
:1001CC000023000101F8023BF1E770474FF40000F7
:1001DC00012101F0D7BC0000044B9A7A044B0AB100
:1001EC00052200E001221A6000F008BBD0080020B4
:1001FC00E005002013B54FF4A06001F067FA14235A
:10020C008DF8043003238DF805300124002301A858
:10021C008DF806308DF8074001F062FA2A238DF82C
:10022C00043001A802238DF805308DF8074001F049
:10023C0057FA02B010BD000073B50F4C01200146F7
:10024C0001F088FC042601230022204669468DF823
:10025C0004308DF806208DF807208DF80530082520
:10026C00009601F0BDFA20466946009501F0B8FAF7
:10027C006683658302B070BD0000024007B505209F
:10028C00012101F067FC4FF48053009300238DF89B
:10029C0004306946012308488DF807308DF8053085
:1002AC0001F09EFA4FF4004304486946009301F0B4
:1002BC0097FA03B05DF804FB00080240000002400E
:1002CC00014B08221A83704700000240014B0822A0
:1002DC005A83704700000240014B04221A83704776
:1002EC0000000240014B04225A8370470000024078
:1002FC00014B04221A83704700000240014B042278
:10030C005A83704700000240704700B1012001F091
:10031C0087BD0000094B10B593E8140014331B681B
:10032C00D0180AD006490822FFF73EFF204605499F
:10033C000422BDE81040FFF737BF10BD5000F81F76
:10034C007400002084000020002000F0EBB807B5FA
:10035C000120014601F00AFC4FF4802001F03AFA2A
:10036C004FF48023009308238DF805306846012351
:10037C008DF8063001F0EAF9FFF7E6FF03B05DF8FF
:10038C0004FB0000F0B50024EFB0ADF80A40FFF715
:10039C00DEFF03F071F9FFF74FFFFFF76FFFFFF779
:1003AC008FFF03F017FB04A802F026FD03F0DCFC22
:1003BC00544A554B55481A60554A564B0AAD1A606B
:1003CC0001F096F803F008FC04A803F01BF80DF1FB
:1003DC000A0029464FF4003202F080FC2346BDF897
:1003EC000A00DBB2834204F1010405D24A4835F815
:1003FC00131001F05DF9F1E740B94FF4FC63009381
:10040C000146A022802302F0BDFF02E0288802F002
:10041C0079FE02F0EDFDBDF8100002F016FEFFF7BC
:10042C00D5FEFFF7E7FE02F0A3F9FFF74FFF00241C
:10043C003A484FF4805101F014FA064640BBFFF7DE
:10044C004BFF0134BDF80A30A4B2A34298BF00247C
:10045C0035F8140002F056FE70B114F0010004D00F
:10046C004FF478430093304601E01F23009301467C
:10047C00A022802302F086FFFFF734FF27484FF4B9
:10048C00805101F0EEF90028F8D00A2002F0C8FBE8
:10049C0023484FF4004101F0E4F90028C8D102F0E0
:1004AC00FAFD9DF80E609DF80D701C484FF48051BC
:1004BC0001F0D7F90028BBD0002003A901F058FCAB
:1004CC000A2002F0ADFB9DF80D30BB4203D002F0C8
:1004DC00E2FD9DF80D709DF80E30B342E5D016F09C
:1004EC00010605D0402027210A2202F05DFD06E01E
:1004FC00009646202C211422282302F043FF9DF85D
:10050C000E60D2E7193E0008BC080020983F000896
:10051C00353E0008B8080020B63F0008000802402D
:10052C000000024008B503F055FA002008BD000099
:10053C0070B507481C460D4616461A4601F0B8F829
:10054C0030462946224603F0C7FA002070BD00BF92
:10055C00C53F000870B507481C460D4616461A469E
:10056C0001F0A6F830462946224603F0D9F90020BE
:10057C0070BD00BFF33F000808B5084B4FF40041B5
:10058C001960074B4FF400721A60064B4FF08070E5
:10059C001860054801F08CF8002008BD0406002006
:1005AC00FC050020F4050020214000082DE9F0474F
:1005BC0007463248324C0378804653B9314B3248A7
:1005CC0053F827305943534323600123016088F8C3
:1005DC00003098F80030012B3DD12C4EDFF8A8905C
:1005EC0033682B4DA3B9DFF89CA0D9F800103AF86A
:1005FC002730284A3846FFF7ADFF81202549402295
:10060C0002F0DAFA5AF82730403B336040230BE013
:10061C002B68204981201944402202F0CDFA33681E
:10062C00403B33602B684033012040212B6002F0AB
:10063C006FFA0120302102F0ADF9D9F800304033C7
:10064C00C9F800302368403B2360134B9A68403A4A
:10065C009A60FFF74DFE236873B90C4A03211360AF
:10066C000B4A88F800301360074A13600B4A11706C
:10067C00BDE8F047FFF742BEBDE8F087CC0500208F
:10068C00C4050020FC050020C8050020B40500208E
:10069C000C060020140600203C0800203608002020
:1006AC00F8B5324C324E2378356853B9314B324F52
:1006BC0053F8203059435343396030490B600123C0
:1006CC0023702378012B3ED12D4A00231360114651
:1006DC00D6F800E005F14007BE45254A0CD2294F5B
:1006EC00D2F800E013F807C0274F01330EF807C00B
:1006FC00176801371760EBE70B60244F1E4BB7F8F8
:10070C0000E01968714419601C4B1D68CEEB05059F
:10071C001D60184B53F82030B5FBF3FE03FB1E5540
:10072C002DB91560C91A184A9BB2FFF701FF184B77
:10073C0039889A680220521A4FF440519A6002F09C
:10074C0042F9FFF7D5FD0D4B1B681BB1114B1B7804
:10075C00042B0AD1002528460121356000F0FEF853
:10076C002570BDE8F840FFF7C9BDF8BDCC050020E9
:10077C00B8050020FC050020BC050020C0050020A9
:10078C001006002050080020140600203408002019
:10079C003C0800203608002010B5012001F010F8AC
:1007AC00A8B101200A4C01F015F804232383082377
:1007BC000848238300F07CFF642002F031FA0648DD
:1007CC00012101F04EF80028F9D10223638310BDFA
:1007DC00000002404F400008000402407047704780
:1007EC00FEE7FEE7FEE7FEE770477047704770478D
:1007FC0000F03EBA4FF4802000F0ECBF3F4B82B0CB
:10080C001A6842F480721A6099683D4A0A409A60EC
:10081C001A6822F0885222F001121A601A6822F427
:10082C0080221A609A6822F47D029A600022DA60B3
:10083C00009201921A6842F480321A602F4B1A68A7
:10084C0002F400320192009A01320092019A1AB914
:10085C00009AB2F5A06FF1D11B6813F4003318BFE6
:10086C0001230193019B012B05D0264B4FF0006215
:10087C009A6002B07047244B4FF400611A68A3F5DC
:10088C00806342F00402C3F80024D3F8002442F041
:10089C000202C3F80024D3F8002442F00102C3F88A
:1008AC0000245A6A42F080525A62184A1160516808
:1008BC00C906FCD49A689A609A689A609A689A6099
:1008CC009A6822F47D029A609A6842F411029A6046
:1008DC001A6842F080721A60084B1A689201FBD5B4
:1008EC009A6822F003029A609A6842F003029A60B6
:1008FC009A6802F00C020C2AFAD1B6E700380240D2
:10090C000CC0FF8800ED00E0003C0240007000408D
:10091C0008B50120102102F03DF8BDE80840022086
:10092C004FF4805102F04FB8034610B50C462246E6
:10093C001946812002F040F90120302102F02AF8FA
:10094C00044B03221A70044B9A68141B00221A736E
:10095C009C6010BD360800203C08002010B50B4AE6
:10096C000C460B490A6008730D22812002F024F911
:10097C00084B14B905221A7010BD04221A700120FC
:10098C003021BDE8104002F005B800BF555342536A
:10099C003C0800203608002008B5184A1378023BA2
:1009AC00032B29D8DFE803F0101D020200230220DC
:1009BC004FF44051137002F006F8022002F01CF8BC
:1009CC00B0F5805F18D110E00D4BDA7B282A13D1DB
:1009DC00587B0C4B19680C4B1A68BDE8084000F0AA
:1009EC0003BD00200121FFF7B9FFBDE8084002203C
:1009FC004FF4405101F0E7BF08BD00BF360800209E
:100A0C0014080020380800204C08002038B5684B2A
:100A1C001A8800239342674C04D26749595CE1540D
:100A2C000133F7E7654B61681F2A5960A16899602B
:100A3C000BD0FFF76DFF0025607B05211A22256086
:100A4C0000F026FC01202946AEE0E37B03F0FD021A
:100A5C00282A11D1A17C627C090441EA0261227D21
:100A6C001143E27C41EA0221554A1160E27DA17DED
:100A7C0042EA0121534A1160226853494D4D8A4282
:100A8C0040F08980514A687B1268904203D8AA7B57
:100A9C00013A0F2A05D9FFF73BFF607B0521242281
:100AAC007EE0252B57D022D8122B48D00ED8042B01
:100ABC0065D007D8002B52D0032B68D1BDE8384045
:100ACC0000F0DABB082B5ED00A2B36E01B2B3AD099
:100ADC0007D8152B57D01A2B59D1BDE8384000F048
:100AEC00BFBB1E2B2FD0232B31D01D2B25E0882BE9
:100AFC0049D016D82F2B3ED00BD8282B33D02A2BED
:100B0C0045D12F4B19682F4B1A68BDE8384000F0BF
:100B1C00A1BC552B37D05A2B39D1BDE8384000F049
:100B2C00A5BB9E2B2FD003D88A2B2CD08F2B04E067
:100B3C00AA2B28D0AF2B26D0A82B24D027E0BDE899
:100B4C00384000F007BBBDE8384000F0A7BBBDE85B
:100B5C00384000F01BBBBDE8384000F04BBBBDE893
:100B6C00384000F0BDBB164B1968164B1A68BDE82F
:100B7C00384000F039BCBDE8384000F093BBBDE80C
:100B8C00384000F0C7BBBDE8384000F0D9BBFFF7D8
:100B9C00BFFE607B02E0FFF7BBFE687B05212022D5
:100BAC0000F076FB01200021BDE83840FFF7D6BEEF
:100BBC003408002014080020500800203C080020B5
:100BCC00380800204C08002055534243DC05002017
:100BDC00012807D002D3022809D070470120102128
:100BEC0001F0D8BE02204FF4805101F0ECBEFFF7AB
:100BFC008FBE000038B5164C02201649E57B01F07B
:100C0C00EFFF154B1880154B187810B1012804D044
:100C1C0011E0BDE83840FFF7F9BE2A2D08D1104B82
:100C2C00607B19680F4B1A68BDE8384000F012BCA5
:100C3C00FFF7CEFF01E0FFF76BFE607B052124225E
:100C4C0000F026FBBDE8384002200021FFF786BEED
:100C5C00140800205008002034080020360800201A
:100C6C00380800204C080020FFF796BEFFF7C2BFE3
:100C7C0070B52A4C2A4D23682A4E9BB22B802A88A9
:100C8C0033881340180401D501F08EFD2A8833886F
:100C9C001340590505D54FF6FF332360224B5B6893
:100CAC0098472A8833881A40920444BF4DF6FF7245
:100CBC0022602A881340D80405D54EF6FF732360B2
:100CCC00002000F0F3F92A883388134019050BD55E
:100CDC00164B1B7813B100F06DF902E0022000F006
:100CEC00E5F94FF2FF7323602A8833881A40920586
:100CFC0007D54FF6FF5222600D4A11780131C9B267
:100D0C0011702A881340DB0507D54FF6FF6323606B
:100D1C000720BDE8704000F0C9B970BD445C0040CC
:100D2C0090080020F4080020CC000020E4050020EE
:100D3C00DA050020014B04221A607047E005002000
:100D4C007047704721B900280CBF00200220704763
:100D5C000220704720B9034B01221B681A8270478E
:100D6C0001487047F0080020DC05002010B5FFF7A3
:100D7C00D1FA054B00241B689C7200F003F901F0BA
:100D8C000BFF024B1C6010BDF0080020E00500209A
:100D9C0038B5324B00249C72314A324BD2791B68E5
:100DAC0020465A7201F0E0FD20464FF4007101F02C
:100DBC00E3FD2D4D2046202101F0ECFD20461821AD
:100DCC0001F07AFE204695F82C1001F0AFFE582168
:100DDC00204601F061FE204601F02AFE204601F07B
:100DEC0014FE2146012001F0C7FD0120982101F0DD
:100DFC0053FE0120202101F0CDFD2146012001F000
:100E0C00E2FD2146022001F0B7FD0220D82101F0BD
:100E1C0053FE95F82C10022001F088FE02204FF4AE
:100E2C00405101F0D0FD2146022001F0B3FD95F8B0
:100E3C002C10204601F07AFE204601F0E6FD2046FB
:100E4C0001F046FC094B01221A60094B094A1A6051
:100E5C00094B1C70BDE83840FFF756BAD00800208B
:100E6C0067400008F0080020CC000020E0050020BE
:100E7C00140800205553424336080020044B1A68CE
:100E8C00044B9A4202D00220FFF7A2BE704700BF6B
:100E9C001408002055534243014901F015BA00BF14
:100EAC0020010020014901F00FBA00BFC40000204E
:100EBC00054B1B68DB78052B04D8044901EBC301F7
:100ECC0001F002BA00207047F00800202801002031
:100EDC0008B5084B1B689B7A5BB1074B05220120B8
:100EEC001A6001F0C7FD022001F0B2FD034B002295
:100EFC001A7008BDF0080020E0050020360800201C
:100F0C0010B50E4B1B681A7802F07F02212A12D101
:100F1C00FF2810D15A8872B95C6864B9012001F0BD
:100F2C00A9FD022001F094FD054A064B20461A60EB
:100F3C00054B1C7010BD022010BD00BFF008002036
:100F4C005553424314080020360800200B4B1B68F5
:100F5C001A7802F07F02212A0DD1FE280BD1588875
:100F6C0048B95A68B2F5803F05D1054A58829A6152
:100F7C0001221A8270470220704700BFF00800203F
:100F8C00610D000808B50120FFF7BFF9064B0122DF
:100F9C001A60064A00200649186010604FF4E052AF
:100FAC000A801A6008BD00BF405C0040445C0040F1
:100FBC00F408002073B500222F4B0192196889B2F6
:100FCC0002F1805000F5B850800004682B48A4B2A0
:100FDC0040F822400132082A0646F1D141F48062E1
:100FEC0021F001011A6088B242F001021A6040F44B
:100FFC0080621A60224C22685505FBD54FF6FF32F1
:10100C002260002256F8225002F1805101F5B851AD
:10101C0001328900ADB2082A0D60F3D140F4816130
:10102C0019601A68144892B242F004021A60154A08
:10103C0013680193136823F0030343F00103136057
:10104C00114B196941F0040119612168C90401D4DB
:10105C0030BF0AE00A494EF6FF740C6004684FF684
:10106C00F77121400160019911601A6922F00402A4
:10107C001A6102B070BD00BF405C004098080020AF
:10108C00445C00400070004000ED00E010B5064CE0
:10109C004FF6FB73226813402360FFF79DF84FF463
:1010AC003F43236010BD00BF405C004010B5264C90
:1010BC00072818BF20702378052B41D8DFE803F0F0
:1010CC00030B1317212C214B1B6813B9FFF7DEFF01
:1010DC0036E0052335E0FFF7D9FF042323701B4BC3
:1010EC0001221A6010BD02236370032329E0637888
:1010FC00013BDBB26370637823BB134B04221A7081
:10110C0010BD134B1A6892B242F010021A600523FC
:10111C0023700A23637010BD6378013BDBB26370EC
:10112C00637803F0FF016BB9094A4FF6EF7310684F
:10113C0003401360044B06221A70044B196010BD57
:10114C000623237010BD00BF94080020E805002082
:10115C00405C0040094B1A7CD2070AD40849094A62
:10116C00002814BF08461046D97C242928BF242106
:10117C0001E005480521FFF7D7BB00BF140800208C
:10118C002A0000204E000020D505002010B5044692
:10119C00FFF7F2F968B1134B012002229A70014655
:1011AC003A221A73FFF7DAFBBDE810400020FFF774
:1011BC000FBD0D4B0D4853F824300C211A0E027143
:1011CC001A0C4271C3711A0A094B827153F82430FC
:1011DC001A0C42721A0A8272C372BDE81040FFF7F1
:1011EC00A3BB00BF08000020040600201E00002046
:1011FC00FC05002010B50446FFF7BEF968B1144B8E
:10120C00012002229A7001463A221A73FFF7A6FBBC
:10121C00BDE810400020FFF7DBBC0E4B0E4853F826
:10122C0024300821013B1A0E02701A0C4270C37054
:10123C001A0A0A4B827053F824301A0E02711A0CD7
:10124C0042711A0A8271C371BDE81040FFF76CBB82
:10125C000800002004060020CD050020FC0500201D
:10126C0001480421FFF760BB1A0000200148082147
:10127C00FFF75ABB00000020034B0448D97C12290D
:10128C0028BF1221FFF750BB1408002008000020D3
:10129C00014B99701A73704708000020002001213F
:1012AC00FFF75CBB08B50C4B9A683AB91B7C03F092
:1012BC00040303F0FF000BB9012109E00220FFF742
:1012CC0087FC064B05229A7024221A7301200021F8
:1012DC00BDE80840FFF742BB1408002008000020BE
:1012EC0008B5FFF749F968B1094B012002229A7041
:1012FC0001463A221A73FFF731FBBDE80840002083
:10130C00FFF766BC0121BDE80840FFF727BB00BF13
:10131C000800002008B5FFF72FF968B1074B012032
:10132C0002229A7001463A221A73FFF717FBBDE8A6
:10133C0008400020FFF74CBC08BD00BF080000208F
:10134C0008B50B4B9A680AB9002004E093F90C30ED
:10135C00002BF9DB0220FFF73BFC064B05229A70B1
:10136C0020221A7301200021BDE80840FFF7F6BACD
:10137C00140800200800002010B5174C1A4454F82B
:10138C002040A2420CD92A2902D10220FFF720FCCE
:10139C000020FFF71DFC114B05229A70212211E051
:1013AC000F4A52F8202053430E4A92689A4210D0AA
:1013BC002A290CBF02200020FFF70AFC074B05224C
:1013CC009A702422012000211A73FFF7C7FA00201B
:1013DC0010BD012010BD00BF040600200800002035
:1013EC00FC050020140800202DE9F041164E804623
:1013FC0033780D461446FBB9144F2821787B2A46C6
:10140C002346FFF7B9FFE8B197F90C30002B05DA4A
:10141C00022333704046294622460FE00220FFF794
:10142C00D7FB0B4B05229A7024221A73012001461C
:10143C00BDE8F041FFF792BA022B03D1BDE8F041B1
:10144C00FFF7B4B8BDE8F08136080020140800207E
:10145C0008000020F8B5174D0F462C7813460CBB2E
:10146C00154E2A21707B3A46FFF786FF00B396F99A
:10147C000C30002B08DB01232B7002204FF4405161
:10148C00BDE8F84001F09FBA2046FFF7A1FB0B4BDB
:10149C0005229A7024221A7321460120BDE8F840D7
:1014AC00FFF75CBA012C03D1BDE8F840FFF7F8B8A0
:1014BC00F8BD00BF360800201408002008000020EA
:1014CC000A2810B5044602D10D20FFF7F9FF064A91
:1014DC0013681BB1591C1C70116010BD034B1B68A9
:1014EC000BB12046984710BDEC050020BC0800202D
:1014FC0010B5441E14F8010F10B1FFF7E1FFF9E726
:10150C0010BD2DE9F04F024685B00D46107800282D
:10151C0000F0CB80252801D0561C6BE05378302B83
:10152C0003D1D61C9378012407E02D2B02D0961CF6
:10153C00002402E09378D61C02244FF00008A3F19B
:10154C003002092A07D80A2202FB083816F8013B98
:10155C00A8F13008F3E703F0DF014C29324603D140
:10156C00137844F004040136002B00F09E80602BAD
:10157C0086BFA3F12002D2B21A464F2A40D006D819
:10158C00432A2FD0442A0DD0422A37D031E0552A95
:10159C0008D0582A2BD0532A2BD12F1DD5F80090C8
:1015AC00002501E00A202CE019F805304BB101357B
:1015BC00FAE7454505F1010A06D22020FFF780FF26
:1015CC005546A00701D4F4E755464846FFF790FF6F
:1015DC00454502D33D46324698E72020FFF770FF81
:1015EC000135F5E728782F1DFFF76AFFF2E7102089
:1015FC0007E01846FFF764FF2F46EBE7022000E0F8
:10160C000820442A296805F1040704D10029BCBF2D
:10161C00494244F008040022B1FBF0FC00FB1C1111
:10162C005FFA81FEBEF1090F614606D9782B14BF13
:10163C0007252725AE445FFA8EFE0EF1300E551CA1
:10164C000DF802E0BCF1000F04D0102D01D02A4699
:10165C00E2E70F22210705D504AB1D442D2305F825
:10166C00103C951C14F0010F0CBF4FF0200B4FF0E9
:10167C00300BA946A30709D4C14509F1010A04D2CC
:10168C005846FFF71DFFD146F4E7D146013D1DF842
:10169C000500FFF715FF002DF8D1C1459AD2202087
:1016AC00FFF70EFF09F10109F7E705B0BDE8F08F70
:1016BC000FB407B504A951F8040B0191FFF721FFF2
:1016CC0003B05DF804EB04B07047000040F0BF605D
:1016DC00024B40F40030D860704700BF00ED00E0D2
:1016EC00C27810B503780AB3164A4478D26803F16D
:1016FC006043D243C2F30222C2F10401C9B204FA1C
:10170C0001F10F2444FA02F28478C9B222400A4350
:10171C001201D2B203F5614383F80023037801224E
:10172C00590903F01F0302FA03F306E059090122D9
:10173C0003F01F0302FA03F32031034A42F821306D
:10174C0010BD00BF00ED00E000E100E0837930B592
:10175C000168027943B3194BCC431D6802F18042F6
:10176C0025401D605D6802F582322C405C60146877
:10177C002143116002689C68D1430C409C60DC687A
:10178C002140D9604179102906D19968114399609B
:10179C00D9680A43DA6030BD01F1804303F5823326
:1017AC0019680A431A6030BD02F1804303F5823395
:1017BC001A6822EA0101196030BD00BF0004014023
:1017CC00034B5B6918420CBF00200120704700BF1F
:1017DC0000040140014B5861704700BF00040140F8
:1017EC002DE9F0410F68002301229A4002EA070517
:1017FC00954231D15A00032494400668E4432640B4
:10180C0006600E79D0F800C006FA02F8013E48EAEC
:10181C000C0C012EC0F800C015D891F805C08668D4
:10182C000CFA02FC2640866086684CEA0606866046
:10183C008688B6B226EA050585808D7986889D4016
:10184C003543ADB28580C5682C40CD79C46005FAAE
:10185C0002F2C4682243C2600133102BC4D1BDE82C
:10186C00F081038A19420CBF00200120704701F05F
:10187C000703C90800EB81009B000F2199409A4097
:10188C0010B5046A24EA01010162016A1143016284
:10189C0010BD000008B50B4B984207D14FF4001057
:1018AC00012100F07BF94FF4001006E04FF48000AA
:1018BC00012100F073F94FF480000021BDE80840CD
:1018CC0000F06CB900540040F0B585B00446868831
:1018DC0068460D46314F00F0C7F8029826F03F06D7
:1018EC003604B0FBF7F7360C1FFA87FC4CEA0606F9
:1018FC00A68021882A6821F00101294B0904090CD2
:10190C009A4221800DD85300B0FBF3F39BB20CF13B
:10191C00010C032B1FFA8CFC98BF0423A4F820C0E5
:10192C0022E0E9884BF6FF73994205D102EB4202A3
:10193C00B0FBF2F39BB206E019235343B0FBF3F375
:10194C009BB243F48043C3F30B020AB943F0010387
:10195C004FF4967257434FF47A7297FBF2F70137B4
:10196C00BFB243F400432784A383238869899BB2C5
:10197C0043F0010323802388AA8823F4816323F096
:10198C0002031B040A431B0C13439BB223802A89BA
:10199C00AB8913439BB2238105B0F0BD40420F00CD
:1019AC00A0860100038819B19BB243F0010303E048
:1019BC0023F001031B041B0C03807047038819B12F
:1019CC009BB243F4807303E023F480731B041B0C61
:1019DC0003807047038819B19BB243F4007303E092
:1019EC0023F400731B041B0C0380704712B141F0ED
:1019FC00010101E001F0FE01018270470182704794
:101A0C00828A008B92B221F07F4342EA0040184058
:101A1C00431A58425841704782B0002300930193F7
:101A2C000B0F01900093009B21F07F4113B1019BA0
:101A3C00143302E0019B090C18330193019B1B68C2
:101A4C0019420CBF0020012002B07047014B1860F6
:101A5C00704700BF20000E42024B00221A70187013
:101A6C00704700BF35380240234B10B59A6802F01E
:101A7C000C020C2A20D8DFE802F01F1F1F1F071FC3
:101A8C001F1F091F1F1F0B001C4B1DE01C4B1BE0D5
:101A9C0099681C4CC1F383419A68615C9B68C9B21C
:101AAC00DB0354BF154B164BC2F381525943013221
:101ABC00B1FBF2F2026008E05B684FF40042C3F342
:101ACC004233013302FA03F303600B490E4A8B686D
:101ADC00C3F30313D45C0368E34043608C68C4F322
:101AEC000224145D23FA04F484608968C1F3C221D2
:101AFC00525CD340C36010BD003802400024F40097
:101B0C0000127A00520100205B01002000F44032E8
:101B1C00B2F5403F084B06D1196800F0C04021F0E7
:101B2C00C04108431860596B21F440315963596B1B
:101B3C000A435A63704700BF00380240014B1860DB
:101B4C00704700BFD8064742014B1860704700BF72
:101B5C00DC064742044BDA6909B1104301E022EA82
:101B6C000000D861704700BF00380240044B1A6A6D
:101B7C0009B1104301E022EA00001862704700BF6F
:101B8C0000380240044B5A6A09B1104301E022EAC2
:101B9C0000005862704700BF00380240044B9A693D
:101BAC0009B1104301E022EA00009861704700BFC0
:101BBC00003802404309012B054B00F01F000CBFFD
:101BCC001B685B6B23FA00F000F00100704700BF4C
:101BDC000038024000230928DAB203F1010302D9CC
:101BEC000A38C0B2F7E740EA0210C0B270470309E6
:101BFC0003EB830300F00F0000EB4300C0B270470F
:101C0C00002382B001930D4BDA68520613D44FF0C7
:101C1C00FF32DA60094BDA68019902F040020131B7
:101C2C0001910199B1F5005F01D0002AF2D0D8687A
:101C3C00C0F3801000E0012002B070470028004083
:101C4C00024BDA6822F08002DA607047002800400C
:101C5C0038B50F4CCA236362532363620546FFF702
:101C6C00CFFF88B1A36823F04003A360A2682B6860
:101C7C001343A360AB68236123696A6843EA024398
:101C8C002361FFF7DDFF0120014BFF225A6238BDB3
:101C9C0000280040002382B001930E4BCA225A62E6
:101CAC0053225A62DA6822F0A002DA60094BDA6831
:101CBC00019902F02002013101910199B1F5004F17
:101CCC0001D0002AF2D0D868FF22C0F340105A622B
:101CDC0002B0704700280040244A2DE9F0410B78EF
:101CEC000C464F788E78926820B912F040022AD1B7
:101CFC00CA7028E012F0400200D1CA703F0247EAD5
:101D0C000343E5781E4346EA0545184CCA23636233
:101D1C0053236362FFF774FF80B105F07F3020F02E
:101D2C00FE402060FFF78CFFA3689B0605D4FFF7ED
:101D3C00B1FF003018BF012000E001200B4BFF2247
:101D4C005A62BDE8F0811846FFF744FF80463846DA
:101D5C00FFF740FF07463046FFF73CFFE57840EAC7
:101D6C00054040EA084545EA0725CEE70028004033
:101D7C000F4B70B51B680C46C3F30542C3F3062624
:101D8C0003F07F0503F480031B0C0A704E708D70FA
:101D9C00CB7058B91046FFF72AFF20703046FFF77A
:101DAC0026FF60702846FFF722FFA07070BD00BFB1
:101DBC00002800400B8810B54C88028823438C887F
:101DCC0002F441522343CC8823430C8923434C898E
:101DDC0023438C892343CC89234313439BB2038035
:101DEC00838B23F400631B041B0C83830B8A0382F9
:101DFC0010BD038819B19BB243F0400303E023F0FC
:101E0C0040031B041B0C03807047808980B2704711
:101E1C0081817047038919420CBF00200120704753
:101E2C00044B5A6810B142F0010201E022F00102A9
:101E3C005A6070470000014001F003039B000F2221
:101E4C009A40984001F0FC0101F1804101F580318C
:101E5C0010B58C6824EA02028A608A6802438A60A0
:101E6C0010BD0000038ACA889BB223F4405330B5DE
:101E7C0013430D4603820989AB8882890B43698918
:101E8C0092B20B4322F4B05222F00C029BB21343D9
:101E9C008381838AAA899BB223F4407385B0134350
:101EAC00044683826846FFF7DFFD1749029A039BBD
:101EBC008C4218BF1346A289192112B25943002A29
:101ECC002A684FF06403B4BF52009200B1FBF2F1E8
:101EDC00B1FBF3F21201100903FB1011A08900B23F
:101EEC00002806DAC9003231B1FBF3F303F0070323
:101EFC0005E009013231B1FBF3F303F00F031A4390
:101F0C0092B2228105B030BD00380140838919B1ED
:101F1C009BB243F4005303E023F400531B041B0C4B
:101F2C0083817047C1F30801818070478088C0F3BA
:101F3C0008007047038819420CBF0020012070472D
:101F4C0010B5064C18B9236801221A8210BD044B37
:101F5C001B681B68984720680A3010BDF0080020E9
:101F6C00EC08002010B5064C18B9236801221A821F
:101F7C0010BD044B1B689B68984720680C3010BD43
:101F8C00F0080020EC08002010B5204B18B91B6895
:101F9C0002221A8210BD1E4A1968002010800C788B
:101FAC00134614F07F040DD14A7A910644BF0221E6
:101FBC00197012F0400F1A7814BF42F0010222F08F
:101FCC00010214E0012C1FD0022C1ED1497901F022
:101FDC000F02920002F1804202F5B84211F0800F1C
:101FEC00126806D002F03002102A07D101221A70B2
:101FFC0004E002F44052B2F5805FF6E7054B1B6833
:10200C001B699847024810BD104610BDF00800200F
:10201C00C0080020EC080020234A2DE9F84314687E
:10202C009046238A267A214FA3B9042E12D1204937
:10203C000A78012A0AD11F4A10681F4A80B202444A
:10204C005200136030223A800B7027E010233B8043
:10205C00072623E0A58AAB428CBF022604269D42AC
:10206C0028BF1D462846A36998478146002000F0EA
:10207C0033FD2A460146484600F04CFC2946002018
:10208C0000F046FD238A4FF440525B1B2382638A87
:10209C001D4430233B80094B65821A80D8F80030F0
:1020AC001E72BDE8F88300BFF0080020F80800207D
:1020BC00F0050020505C004002300020F6080020A3
:1020CC0010B50A4B0A491B684978DA7891420AD351
:1020DC00997841B99C8834B99A72064B1B685B6835
:1020EC009847204610BD022010BD00BFF00800200C
:1020FC0050010020EC08002038B50E4A0E4C126836
:10210C00236892695879D978904723689A7A7AB17A
:10211C0070B91A7962B99D7855B9084B1B68DB68A0
:10212C009847236828465A79DA72DA781A7338BDD8
:10213C00022038BDC8080020F0080020EC08002060
:10214C0038B5314B1B68187810F07F0004D15A7ADF
:10215C0022F020025A7238BD022853D15A88002A24
:10216C0051D11A79002A4ED15A79284D22F080008B
:10217C00840004F1804101F5B84109682D7812F012
:10218C00800F14BF01F0300101F44051A84239D244
:10219C00002937D09B7A002B34D004F1804404F50D
:1021AC00B844120623680CD503F03003102B23D14E
:1021BC00C4B2204600F05EFC2046302100F0EAFB61
:1021CC001AE003F44053B3F5805F15D128B9104BD6
:1021DC0093F82C1000F0AAFC01E000F039FC236805
:1021EC0023F4804323F070039BB283F4405343F4F5
:1021FC00004343F080032360064B1B685B699847E0
:10220C00002038BD022038BDF0080020500100200D
:10221C00CC000020EC08002038B51F4B1F4D19686E
:10222C002D784A7922F08004A30003F1804000F558
:10223C00B840006812F0800F14BF00F0300000F4BA
:10224C004050AC4226D24C8824BB18B3897A09B3CF
:10225C0003F1804303F5B84312F0800F1A6807D0DE
:10226C0022F4E04222F0400292B282F0100206E028
:10227C0022F4804222F0700292B282F4805242F434
:10228C00004242F080021A60054B1B689B6998471C
:10229C00002038BD022038BDF0080020500100207D
:1022AC00EC08002008B5064B1B685A7A42F0200255
:1022BC005A72044B1B68DB699847002008BD00BFAD
:1022CC00F0080020EC080020054B1A68538A18B956
:1022DC008988CB1A1382704708681844704700BF6E
:1022EC00F008002008B50B4B002093F82C1000F0E0
:1022FC001DFC094B1B68187A082806D1074B4FF4B4
:10230C0080521A80064B10221A80B0F109035842F1
:10231C00584108BDCC000020F0080020F608002031
:10232C00F8080020F7B5964F964B3A68964D92B246
:10233C0013442E685B001C68337A092B15D0A4B2A9
:10234C00640004F1804404F5C0442378337063784E
:10235C007370A08800F01AFC708020892E6800F041
:10236C0015FCB080A2892B68DA802B6801221A72C6
:10237C00DA885C78002A5ED11A7812F07F0237D1A5
:10238C00092C02D1FFF79CFE41E0052C0FD193F9EB
:10239C000320002A01DA08234AE09A78002AFAD1AD
:1023AC009A88002AF7D19B7A002B34D0F3E7032CC0
:1023BC0010D1DA78012A07D0744B20461B685B6970
:1023CC009847032825D132E09B88002BF4D1FFF7E6
:1023DC0069FF1CE0012CEFD1DA78012AECD19A8844
:1023EC00002AE9D15B7A9906E6D5FFF7A9FE0EE043
:1023FC00012A04D10B2CDFD1FFF77EFE07E0022A65
:10240C00DAD1012CF1D0032CD6D1FFF705FF10B196
:10241C00D2E70028BFD13A685D4B92B213445B00FF
:10242C0000221A605B4B30221A80062300E009233D
:10243C002A681372D0E0062C13D11A78520678D180
:10244C009A78524B012A02D11B68DB6968E0022A98
:10245C0002D11B681B6A63E0032A6AD11B685B6AA2
:10246C005EE0002C3DD15988002962D15A6822F4D3
:10247C007F42B2F5003F5CD11A7812F07F0204D192
:10248C009B88002B00F0AC8053E0012A0DD13F4A11
:10249C00587912689269904700284AD13A4B1B68C8
:1024AC009B7A002B40F09C8043E0022A41D15B795F
:1024BC00394803F00F018A0002F1804202F5B8425C
:1024CC001268007813F0800F14BF02F0300202F48F
:1024DC00405281422DD213F0700F2AD1002A7FD1A5
:1024EC0027E0082C03D11B785B067BD021E00A2C5B
:1024FC001FD11A7802F07F02012A1AD19A7AC2B13E
:10250C005988B1B95A6822F47F42B2F5803F10D194
:10251C001E4A5879126892699047002864D008E0E6
:10252C003BB12A6800245482936120469847204688
:10253C000AE0164B1A682B681269587890470328E2
:10254C0002D1114B1B6805E02B684FF6FF711A8AFC
:10255C008A4201D1092203E0022800D012B90822D4
:10256C001A7239E093F9001000292FDAD9880191F9
:10257C0001988242054811D9019A1A821FE000BFC6
:10258C00505C004004300020F0080020C8080020F7
:10259C0002300020F8080020500100208A420ED2A0
:1025AC00016891F82C108A4201D2002105E092FBBF
:1025BC00F1F401FB142212B901210C4A11700268CA
:1025CC0092F82C209A82FFF727FD05E003221A725D
:1025DC00074B4FF440521A80FFF784FE03B0F0BD56
:1025EC00044B9EE7044B9CE7044B9AE7F005002054
:1025FC00F6080020951F00084D1F0008711F0008E9
:10260C00F8B52D4D2C68237A022B4DD0042B4BD0D2
:10261C00032B01D0052B41D1A369228AABB1A2B106
:10262C00A68A964228BF164630469847238A074604
:10263C009B1B2382638A00203344638200F05AFA86
:10264C0032460146384600F07DF9238A53B11B4BC4
:10265C0000204FF4405201461A8000F059FA184BF2
:10266C0030221A80238AA28A9A4202D82B6803222B
:10267C0002E01BB12B6805221A720CE02A680621B5
:10268C001172104A1168104A89B20A445200136040
:10269C000B4B30221A802B681B7A06E0072B03D1D8
:1026AC000A4B1B68DB68984708232A681372BDE83D
:1026BC00F840FFF717BE00BFF0080020F608002016
:1026CC00F8080020505C004002300020C8080020B0
:1026DC0070B50D4B1D780023AB4210D203F1805224
:1026EC0002F5B8529400266843F4004140F60F728C
:1026FC0041F0800132400A4322600133ECE7034B86
:10270C0040F08000186070BD500100204C5C00400F
:10271C0010B5134C23681A7A022A01D0042A04D16A
:10272C00FFF77AFC23681B7A13E0062A10D15A783B
:10273C00052A09D11A78520606D1D878FFF7C8FFB6
:10274C00084B1B681B6A9847074B1B689B6898478C
:10275C00082322681372BDE81040FFF7C3BD00BF09
:10276C00F0080020EC080020C8080020704700008A
:10277C0008B5074A074B0849136002221A72074B27
:10278C00074A1360074A1B681160984708BD00BFD1
:10279C00F0080020D0080020FC000020CC00002015
:1027AC00C8080020EC08002073B50023ADF80630F3
:1027BC00504B1A68504B91B21204198040F197801B
:1027CC001A884E4C02F00F022270002A61D14C4C38
:1027DC004C4E22684C4D92B23280328802F030025C
:1027EC002A80328802F44052328021684BF6BF7244
:1027FC000A4082F4005282F0200242F4004242F07D
:10280C00800222601B88D80607D4226848F60F7312
:10281C0013402360FFF77CFF1BE023689BB2ADF8ED
:10282C000630BDF80630190507D5226840F68F73BF
:10283C0013402360FFF776FD0BE0BDF806301BB2AA
:10284C00002BB5DA226840F68F7313402360FFF734
:10285C00D7FE22684BF6BF7313403288D2043288FD
:10286C0048BF83F4805396042A8848BF83F40053EE
:10287C00D4062A8848BF83F01003900648BF83F023
:10288C00200343F4004343F080031D4A9BB21360C2
:10289C002DE0930003F1804303F5B843196889B226
:1028AC00ADF80610BDF8061009B2002909DA18684F
:1028BC0040F68F7101401960144B013A53F82230E5
:1028CC009847BDF8063019067FF572AF217848F6A7
:1028DC000F728B0003F1804303F5B843186801397C
:1028EC0002401A600A4B53F82130984760E702B057
:1028FC0070BD00BF445C004090080020CC08002054
:10290C00005C0040F6080020F8080020A800002019
:10291C008C00002030B501F10051013201F540511D
:10292C00521049000023934200F1020009D010F824
:10293C00015C10F8024C44EA052421F823400133D1
:10294C00F1E730BD10B501F10051013201F54051F4
:10295C00521049000023934205D051F8234020F82F
:10296C0013400133F7E710BD4FF6F873014A0340EB
:10297C0013607047505C0040800000F1804000F50F
:10298C00B840036823F4EC4323F0700319438BB273
:10299C0003607047800000F1804000F5B840036888
:1029AC00CA0623F4E04323F040039BB248BF83F0F4
:1029BC0010038A0648BF83F0200343F4004343F01E
:1029CC00800303607047800000F1804000F5B84040
:1029DC000368CA0423F4804323F070039BB248BFFE
:1029EC0083F480538A0448BF83F4005343F40043B8
:1029FC0043F0800303607047800000F1804000F5D5
:102A0C00B840006800F440507047800000F18040EE
:102A1C0000F5B840036823F4804323F070039BB2A5
:102A2C0083F4405343F4004343F080030360704746
:102A3C00800000F1804000F5B840036823F4F8737F
:102A4C001B051B0D43F4004343F0800303607047E8
:102A5C00800000F1804000F5B84003685B0408D5A5
:102A6C00026840F60F73134043F4404343F0800375
:102A7C0003607047800000F1804000F5B8400368A7
:102A8C005B0608D5026840F60F73134043F400430D
:102A9C0043F0C00303607047064B49081B684900AC
:102AAC009BB203EBC00000F1005000F54050400019
:102ABC0001607047505C0040054B49081B68490099
:102ACC009BB203EBC000034B03445B0019607047DF
:102ADC00505C004004300020054B1B689BB203EB9C
:102AEC00C00000F1005000F54050400000887047D5
:102AFC00505C0040044B1B689BB203EBC000034BC3
:102B0C0003445B0018887047505C00400430002080
:102B1C00044B1B689BB203EBC000034B03445B00EC
:102B2C0019607047505C0040023000200D4B3E296C
:102B3C001B689BB203EBC0000B4B03444FEA4302F0
:102B4C0009D94B09C80604BF03F1FF339BB29B02A2
:102B5C0043F4004304E04B08C90748BF01339B0210
:102B6C0013607047505C004006300020054B1B681A
:102B7C009BB203EBC000044B03445B001868C0F32A
:102B8C0009007047505C004006300020C3B2000AB8
:102B9C0040EA032070470000044B0020044A1860F0
:102BAC004FF43F431380034A13607047445C00406A
:102BBC00F4080020405C004070B500F07F0528460A
:102BCC000E461446FFF788FFA4B201462246304653
:102BDC00FFF7A0FE28462146FFF79AFF002070BDA4
:102BEC0070B500F07F0528460E46FFF7BFFF044680
:102BFC002846FFF77FFF224601463046FFF7A2FE2C
:102C0C00204670BD10F1FF3009D300BF00BF00BFDC
:102C1C0000BF00BF00BF00BF00BF00BFF2E770479E
:102C2C0038B5054655B14FF47A74013C0120A4B275
:102C3C00FFF7E8FF002CF8D1013DF3E738BD0000A9
:102C4C0073B5064613480C46FEF732FD002504F515
:102C5C008F72ABB2520204F5007146F8232001A822
:102C6C004900022200F05CFE9DF804309DF80540FE
:102C7C00094843EA04242146FEF71AFD4FF6FF7378
:102C8C009C4205D04FF6F8739C4205F10105DED14C
:102C9C0002B070BDF54000080A41000807B5A0F568
:102CAC000F30010A01F5806101A8022200F038FE04
:102CBC009DF804309DF8050043EA00204FF6FF73A1
:102CCC00984207D04FF6F873984203D000F58F70F6
:102CDC00400200E0002003B05DF804FBF0B50646AE
:102CEC0089B00F4614461546B4F5003F0AD004F5DA
:102CFC0000739D4206D32046FFF7D0FF0446002800
:102D0C0051D0054629466846202200F009FE9DF860
:102D1C0000302035E52B3FD09DF80B20102A21D117
:102D2C009DF81B109DF81A2042EA012202F58F72C1
:102D3C005202A24230D0542B0FD19DF80130522BAD
:102D4C000BD19DF80230412B07D19DF80330532B4A
:102D5C0003D19DF80430482B1ED030463946FFF77E
:102D6C00BDFF19E09DF80830422B15D19DF80930B4
:102D7C004D2B11D19DF80A30502B0DD13388C82B17
:102D8C0011D89DF81B109DF81A2042EA012227F851
:102D9C0013203388013333809DF800301BB19DF82C
:102DAC000130002BA0D109B0F0BD03FB02122DE9BC
:102DBC00F041069E1D46C2F30803C3F50074C2F32E
:102DCC004F2756F82710A4B2AC4228BF2C46194402
:102DDC002246804600F0A4FDAC420BD20137BFB2B4
:102DEC002A1B08EB040056F8271092B2BDE8F041FC
:102DFC0000F096BDBDE8F0812DE9F04F00229DB0AA
:102E0C00064608AC002313550132502AF9D14FF66F
:102E1C00FF72F2520233162BF9D14FF400352946CA
:102E2C002046202200F07CFD9DF820302035432BDD
:102E3C0036D19DF821304F2B34D19DF822304E2BBA
:102E4C0030D19DF82330462B2CD19DF82430492BC2
:102E5C0028D19DF82530472B24D19DF82630202BE6
:102E6C0020D19DF82730202B1CD19DF82830542BD5
:102E7C0018D19DF82930582B14D19DF82A30542B99
:102E8C0010D19DF83B109DF83A3053EA012100F027
:102E9C00878003AF38460025FFF7D2FEA84632E004
:102EAC00002B7DD09DF82130002BB8D178E0232861
:102EBC005FFA83FC3BD1E15C0D2948D1E1184978DC
:102ECC000A2944D10CF1020C9DF808306544ADB2CE
:102EDC009BB100224FEA480A0DF10B010DF1070BD3
:102EEC00944611F80139002B36D15945F9D108F126
:102EFC00010826F80A205FFA88F8002850D09DF8BF
:102F0C002130002B4CD0204600225023009729461C
:102F1C00FFF74BFF00238DF808308DF809308DF842
:102F2C000A308DF80B309DF820001A46BFE7E15CA3
:102F3C000D29C0D042B1202909D00DF1700C944458
:102F4C0001320CF8691CD2B23D2908BF01220133B1
:102F5C00502BACD19C46B5E70CF1010C5FFA8CFC04
:102F6C004FFA8CF9303BB9F1020F9BB203D103EB52
:102F7C0083035B0010E0B9F1030F05D103EB83036E
:102F8C0003EB83039B0007E0B9F1040F05D1C3EBFE
:102F9C00431903EB8903DB009BB21A4492B2A4E7FA
:102FAC001DB0BDE8F08F000070B5144632266643A4
:102FBC003223202200F0B4F900F09AF90B4B0025D3
:102FCC0003EB86061F247059E04010F0010018BF77
:102FDC004FF6FF7000F068F914F1FF34F3D20435AA
:102FEC00C82DEFD1BDE8704000F094B91441000831
:102FFC001FB501214FF08050FEF7C4FD0120FEF7F4
:10300C0025FD0120FEF7A0FD0020FEF79DFD01200F
:10301C00FEF722FD4920FEF7CDFD0028FAD04FF433
:10302C008030FEF773FD7F230293FF23039304A8E4
:10303C00002340F80C3DFEF70BFE0120FEF77EFD51
:10304C00FEF728FE05B05DF804FBB0F5166F07B56A
:10305C0007D040F63713984206D8B0F5966F05D2D4
:10306C0000E00020002302E04FF49660402364222D
:10307C008DF80730B0FBF2F302FB130001A98DF8B9
:10308C00050000208DF804308DF80600FEF724FEB4
:10309C0003B05DF804FB1FB5002003A9FEF768FE22
:1030AC009DF80C200A24B2FBF4F200202721FFF734
:1030BC007BFF9DF80C302020B3FBF4F204FB1232A2
:1030CC002721D2B2FFF770FF002300934020322358
:1030DC002721202200F056F99DF80D206020B2FB2C
:1030EC00F4F22721FFF760FF9DF80D308020B3FB31
:1030FC00F4F204FB12322721D2B2FFF755FF04B0D1
:10310C0010BD00002DE9F04F0023ADF20C5D074619
:10311C0052AC00221A550133B3F5F07FF8D107F504
:10312C008F71204649021E2200F0FAFB2378422BB5
:10313C0003D063784D2B40F0AD80257DE17C2D04D0
:10314C0045EA0125A17CA27A0D43617D94F80B80A0
:10315C0045EA0165A02D237F94F81D90A07D94F87D
:10316C0017C0267E617E00F29780360446EA0C2654
:10317C00064346EA0166802E00F28E803946CAA8C4
:10318C0043EA092942EA08281FFA85FBFFF758FD94
:10319C00444829463246FEF78BFA4FEA4B039B44D0
:1031AC001FFA83FA1FFA8BFB0027BAB2B2426FD216
:1031BC00B9F1080F1FD1CAAB009352A8ABB241466C
:1031CC00FFF7F3FD0023581C9BB2AB4254D2E15CD9
:1031DC000A0242EA01420A4302F4780102F47C4EEC
:1031EC00090A41EA5E11C2F3C4020A4302A921F89A
:1031FC0013200346E7E7B9F1100F18D1CAAB0093BF
:10320C0052A853464146FFF7D0FD0023591C9BB2F0
:10321C00AB4231D252AA02EB4300407812F8132091
:10322C0042EA002002AA22F813000B46EEE7B9F19D
:10323C00180F21D1CAAB009352A85B464146FFF749
:10324C00B4FD002303F1010E9BB2AB4214D203EB8D
:10325C00430252A9881890F802C04078895C800813
:10326C004FEADC0C400140EACC2040EAD10102AA32
:10327C0022F813107346E5E7711EC91B02AB0093CD
:10328C000020C9B2EAB2012300F096F801378CE7AE
:10329C00002002E0012000E002200DF20C5DBDE8F0
:1032AC00F08F00BFAC49000810B50446000A00F0CE
:1032BC0041FDE0B2BDE8104000F03CBD2DE9F0410D
:1032CC00094C0A4E10254FF40077884665837783A6
:1032DC0000F030FD378340462583658300F02AFDDE
:1032EC002583BDE8F08100BF0000024000040240CD
:1032FC0038B5064B064C10224FF400755A83222029
:10330C00658300F017FD258338BD00BF0000024027
:10331C0000040240014B10221A8370470000024047
:10332C00013AF8B58718013BCD18FFB29F2834BF7E
:10333C0006469F269F2F28BF9F270C4611F0800F13
:10334C00EDB218BF7F24314615F0800F4FF01700F7
:10335C0018BF7F25FFF7B2FF39461820FFF7AEFFE5
:10336C0021461920FFF7AAFF29461A20FFF7A6FFCE
:10337C0031462020FFF7A2FF21462120BDE8F8406E
:10338C00FFF79CBF70B514461E46BDF81050FFF7F2
:10339C00C7FFFFF7ADFF66430024A3B2B34204F1AD
:1033AC00010403DA2846FFF77FFFF6E7014B1022F2
:1033BC001A8370BD0000024070B515461E46754359
:1033CC00049CFFF7ADFFFFF793FF00214E1C89B261
:1033DC00A94205DA34F81100FFF766FF3146F5E72C
:1033EC00014B10221A8370BD0000024007B500206B
:1033FC0000900146A0228023FFF7C4FF03B05DF8C4
:10340C0004FB000070B55A4D4FF4005604466E8311
:10341C000A20FFF705FC0A202E83FFF701FC01218F
:10342C000420FFF74BFF0A20FFF7FAFB00210420D2
:10343C00FFF744FF0A20FFF7F3FB06200021FFF7FC
:10344C003DFF02200121FFF739FF80200021FFF70B
:10345C0035FF22884FF6FF739A424FF0030025D1B7
:10346C003021FFF72BFF10205221FFF727FF1120EF
:10347C003821FFF723FF12203A21FFF71FFF082006
:10348C000121FFF71BFF09200121FFF717FF0A207D
:10349C000121FFF713FF0B200A21FFF70FFF0C2070
:1034AC000A21FFF70BFF0D200A2124E00021FFF772
:1034BC0005FF10202179FFF701FF1120A179FFF7FB
:1034CC00FDFE1220217AFFF7F9FE0820A17AFFF702
:1034DC00F5FE0920217BFFF7F1FE0A20A17BFFF707
:1034EC00EDFE0B20217CFFF7E9FE0C20A17CFFF701
:1034FC00E5FE217D0D20FFF7E1FE13200021FFF7F3
:10350C00DDFE14203121FFF7D9FE16206621FFF7CE
:10351C00D5FE28207F21FFF7D1FE29200021FFF7BF
:10352C00CDFE2E200021FFF7C9FE2F200021FFF732
:10353C00C5FE33200021FFF7C1FE34209F21FFF789
:10354C00BDFE35200021FFF7B9FE7F213620FFF7A5
:10355C00B5FEFFF74BFF074B202264201A83FFF7C1
:10356C005FFBBDE8704006200121FFF7A7BE00BF3E
:10357C00000802400000024037B5002301934FF6CB
:10358C00FF7305460C46019336484FF40031FEF7A5
:10359C0043FA30B1019B5A1E0192002BF4D1012049
:1035AC005EE030480121FEF709FA4FF6FF730193F4
:1035BC002C482D49FEF724FA30B9019B5A1E019272
:1035CC00002BF5D102204BE02648C0210022FEF74B
:1035DC000DFA4FF6FF73019322482449FEF710FAB7
:1035EC0030B9019B5A1E0192002BF5D1032037E014
:1035FC001C482946FEF702FA4FF6FF73019319484F
:10360C001B49FEF7FDF930B9019B5A1E0192002BA4
:10361C00F5D1042024E013482146FEF7EFF94FF6CC
:10362C00FF7301930F481249FEF7EAF930B9019B79
:10363C005A1E0192002BF5D1052011E009480121F9
:10364C00FEF7C8F94FF6FF73019306480949FEF7D8
:10365C00E3F928B1019B5A1E0192002BF5D10620EB
:10366C0003B030BD00580040010003008200070089
:10367C00840007001000001070B5032088B00121F1
:10368C00FEF768FA0124002503234F4802A98DF8A0
:10369C000D3002948DF80C508DF80F50FEF7A0F8F9
:1036AC0080234A4802A90293FEF79AF84023474820
:1036BC0002A90293FEF794F80223444802A902934C
:1036CC008DF80C408DF80E508DF80F308DF80D40A4
:1036DC00FEF786F83D4C80212046FEF7C2F810B963
:1036EC0002232383F6E702200121FEF733FA4FF47D
:1036FC0080000121FEF746FA33480A210422FEF726
:10370C00B6F8042230480B21FEF7B1F8022301244D
:10371C0000254FF480668DF8143004A903232A4841
:10372C008DF8153004968DF816408DF81750FEF76D
:10373C0057F84FF4006304A923480493FEF750F89C
:10374C002348FEF7A7F84BF6FF73ADF816304FF48D
:10375C008043ADF81C301F4B04A91D480493ADF8F1
:10376C001450ADF81850ADF81A60FEF7ADF82146BC
:10377C001748FEF717F94D210620FFF7FDFE2146ED
:10378C002020FFF7F9FE20462146FEF7EFF92946E7
:10379C002046FEF751FB082304A88DF8153004943D
:1037AC008DF814508DF81640FDF7D0FF062301A8B4
:1037BC008DF804308DF805508DF806508DF80740C3
:1037CC00FDF78EFF08B070BD0004024000000240FF
:1037DC0000580040801A060037B502200121FEF780
:1037EC00B9F94FF480400121FEF7CCF91F4C4FF48E
:1037FC000053009302238DF8043000258DF8073018
:10380C002046032369468DF805308DF80650FDF7E8
:10381C00E7FF4FF48043204669460093FDF7E0FF35
:10382C004FF40043204669460093FDF7D9FF20462C
:10383C000D210522FEF71BF820460E210522FEF76E
:10384C0016F8204605220F21FEF711F84FF480538D
:10385C0000932046012369468DF804308DF80650FC
:10386C008DF80730FDF7BCFF03B030BD00040240FB
:10387C0037B5012001460C4CFEF76CF901234FF4CF
:10388C0080758DF8043000228DF807302046032314
:10389C00694600958DF806208DF80530FDF7A0FFE0
:1038AC00258303B030BD00BF0000024013B50420D7
:1038BC000121FEF74FF901234FF400748DF8043009
:1038CC0000228DF807300748032369468DF8053030
:1038DC0000948DF80620FDF783FF034B1C8302B088
:1038EC0010BD00BF000002400008024010B50446A5
:1038FC000A480221FEF78EFA0028F9D00748214623
:10390C00FEF786FA05480121FEF784FA0028F9D063
:10391C000248FEF77AFAC0B210BD00BF0038004072
:10392C002DE9F041144E4F0A4FF480537383044633
:10393C00BFB20320C1F308059046FFF7D7FFC7F3CA
:10394C00C710FFF7D3FF2B0A03EB4700C0B2FFF7FA
:10395C00CDFFE8B2FFF7CAFF04EB0805AC4205D077
:10396C00A520FFF7C3FF04F8010BF7E74FF48053D2
:10397C003383BDE8F08100BF0004024010B5084C51
:10398C004FF480536383D720FFF7B0FFA520FFF7D8
:10399C00ADFF0306FAD54FF48053238310BD00BF4F
:1039AC000004024038B50A4C4FF4805565833D2025
:1039BC00FFF79CFF2A20FFF799FF8020FFF796FF67
:1039CC00A620FFF793FF2583BDE83840FFF7D6BF4D
:1039DC000004024010B586B0FFF74AFFFFF766FF00
:1039EC00FFF7FAFE144B154C4FF480521A83002348
:1039FC004FF48272ADF80430ADF80620ADF8083003
:103A0C004FF40072ADF80A30ADF80C30ADF8103050
:103A1C00ADF812302046072301A9ADF80E20ADF801
:103A2C001430FEF7C7F920460121FEF7E2F9FFF743
:103A3C00B9FF06B010BD00BF0004024000380040C2
:103A4C002DE9F0434FEA5129ADF5017D1FFA89F8B4
:103A5C004FEA492906460C461546C1F30807684645
:103A6C0049464FF40072FFF75BFF00239AB2954270
:103A7C0007D000A9C9EB04020A44F15CD15401330C
:103A8C00F4E7DFF850904FF48053A9F81A308220F5
:103A9C00FFF72CFFC8F3C710FFF728FF3B0A03EB17
:103AAC004800C0B2FFF722FFF8B2FFF71FFF002457
:103ABC004F46A3B29D4204D0305DFFF717FF01348F
:103ACC00F7E74FF480533B83FFF758FF0DF5017D6B
:103ADC00BDE8F083000402402DE9F8431346C2F31D
:103AEC004F28C1F3080492B205460E46C2F30807EC
:103AFC00CCB9B8F1000F4BD04FEA482800F500794B
:103B0C00C1440446711B2144204604F500744C4505
:103B1C0004D04FF40072FFF793FFF3E705EB0800B6
:103B2C0008EB06010EE0C4F50074A4B2B8F1000F66
:103B3C000AD1A7422CD93F1B2246FFF781FFBFB207
:103B4C002819A1193A4623E01B1B22465F0AC3F32E
:103B5C000808FFF775FF04EB0609BFB22C447F027F
:103B6C0004F500753D442646C4EB0901314430464A
:103B7C0006F50076AE4204D04FF40072FFF760FFFA
:103B8C00F2E7E01907EB0901B8F1000F04D0424647
:103B9C00BDE8F843FFF754BFBDE8F88337B5012003
:103BAC000146FDF7D7FF01238DF80430094C0023A3
:103BBC008DF80630022320258DF80730204603238C
:103BCC00694600958DF80530FDF70AFE658303B054
:103BDC0030BD00BF000002402DE9F04F062089B037
:103BEC000121FDF7B7FF08AD4FF40063DFF840810A
:103BFC0045F8143D4B4F0024012602224FF00309D7
:103C0C004046294600938DF8132001924FF4007A18
:103C1C008DF812408DF811908DF81060FDF7E0FDD5
:103C2C00384629464FF4005BCDF80CA0FDF7D8FDC3
:103C3C0040462946CDF80CB0FDF7D2FDFFF7AEFF9C
:103C4C0048463146FDF786FF31464FF48050FDF76C
:103C5C008DFF019A08210391384629468DF81020D2
:103C6C008DF812408DF811908DF81360FDF7B8FDAA
:103C7C002022384629460392FDF7B2FD38464946C4
:103C8C000522FDF7F4FD05210A463846FDF7EFFD48
:103C9C004FF01009384629468DF810408DF8134026
:103CAC00CDF80C908DF81260FDF79AFD1E4A29464E
:103CBC00104601928DF81240CDF80C908DF81060E2
:103CCC008DF81360FDF78CFDADF80C40ADF810408D
:103CDC00ADF81240ADF81440ADF81840ADF81A40EC
:103CEC004FF48271114CADF80E100721ADF81C1079
:103CFC0020462946ADF816A0FEF75CF82046314662
:103D0C00FEF777F8009B019AA8F81AB0A8F81A30B9
:103D1C00A7F818A0A2F81890A8F818B009B0BDE838
:103D2C00F08F00BF00040240000002400030014050
:103D3C000008024010B504460A480221FEF76AF852
:103D4C000028F9D007482146FEF762F80548012102
:103D5C00FEF760F80028F9D00248FEF756F8C0B21A
:103D6C0010BD00BF0030014030B5012087B00146C6
:103D7C00FDF7F0FE4FF480400121FDF7F7FE4FF404
:103D8C0080630093022300248DF804300125032363
:103D9C001C4869468DF805308DF806408DF80750A3
:103DAC00FDF71EFD4FF40073164869460093FDF7AE
:103DBC0017FD144809210722FDF759FD11480A2166
:103DCC000722FDF754FD4FF4E13302930E480C2308
:103DDC0002A9ADF80C40ADF80E40ADF81040ADF8AE
:103DEC001440ADF81230FEF73DF807482946FEF7AF
:103DFC008DF805488021FEF79DF80028F9D007B012
:103E0C0030BD00BF0000024000380140014608B53B
:103E1C000448FEF787F803488021FEF78BF800284A
:103E2C00F9D008BD0038014008B505482021FEF73F
:103E3C0081F80028F9D00248FEF778F8C0B208BD26
:103E4C000038014070B50F4E0F4D761BB61007D0E1
:103E5C00043D0024013455F8043F9847A642F9D19B
:103E6C000A4E0B4D00F0AEFD761BB61008D0043D8B
:103E7C000024013455F8043F9847A642F9D170BD8F
:103E8C0070BD00BFE8490008E8490008F049000887
:103E9C00E8490008024B13B1024800F005B870471E
:103EAC0000000000C13E0008014600200246034607
:103EBC0000F018B838B5094D094C641BA41018BF94
:103ECC0005EB840505D0013C55F8043D9847002CC2
:103EDC00F9D1BDE8384000F07BBD00BFF0490008C7
:103EEC00F4490008F0B5274C85B026680746D6F88B
:103EFC004841002C40D065681F2D1EDD224818B9A2
:103F0C004FF0FF3005B0F0BD4FF4C8700391029232
:103F1C000193AFF3008003990446029A019B002899
:103F2C00EED0D6F848510020256060600546C6F8F2
:103F3C004841C4F88801C4F88C013FB96B1C0020BF
:103F4C000235636044F8251005B0F0BD0126AE4083
:103F5C0004EB8500C0F88820D4F88821022F42EAAF
:103F6C000602C4F88821C0F80831E7D1D4F88C31A6
:103F7C001E43C4F88C61E1E706F5A674C6F8484107
:103F8C00B9E700BFCC490008000000000A496E6682
:103F9C0072614D6F64756C65205541525420646597
:103FAC006275676575723A0A0A00494D4147453A90
:103FBC00203078253032780A005B2B5D20577269EF
:103FCC0074654275666665723A20416472657373F6
:103FDC0065203078253032782C204E624F63746522
:103FEC0074732025640A005B2D5D20526561644268
:103FFC007566666572203A2041647265737365203C
:10400C003078253032782C204E624F63746574738F
:10401C002025640A005B2B5D204765745374617422
:10402C00757320203A20426C6F636B436F756E740E
:10403C003D25642C20426C6F636B53697A653D257A
:10404C00640A000A5B2A5D204175207265766F69EF
:10405C0072203B2D280A00040309040902200001E8
:10406C000100C03209040000020806500407058153
:10407C0002400000070502024000002603530054D2
:10408C00004D003300320020004D006100730073BE
:10409C00002000530074006F00720061006700651F
:1040AC0000120100020000004083042057000201AE
:1040BC0002030110035300540020004D00610073F3
:1040CC000073002603530054004D00690063007216
:1040DC00006F0065006C0065006300740072006F77
:1040EC00006E006900630073000A61646472436CC3
:1040FC0075737465723A2030782530327800203E22
:10410C0020307825303278000000000000000000DC
:10411C0000FEFF0000FFFF0180FFFF0360FFFF01B7
:10412C00F0FEFF0CF801001EF801003FF801003F03
:10413C00F801003FF801003FF801003FF801003F93
:10414C00F801003FF801003FF801003FF801003F83
:10415C00F801003FF801003FF801003F7800003EF5
:10416C0018000038080000200000000000000020AB
:10417C00180000387800003EF801003FF801003FBD
:10418C00F801003FF801003FF801003FF801003F43
:10419C00F801003FF801003FF801003FF801003F33
:1041AC00F801003FF801003FF801003FF801003F23
:1041BC00F000001E60FEFF0C00FFFF0180FFFF03FC
:1041CC0000FFFF0100FEFF000000000000000000E7
:1041DC0000000000000000000000000000000000D3
:1041EC000000000060000000F0000000F80100007A
:1041FC00F8010000F8010000F8010000F8010000CF
:10420C00F8010000F8010000F8010000F8010000BE
:10421C00F8010000F8010000F8010000F8010000AE
:10422C00F8010000780000001800000008000000F1
:10423C0000000000000000001800000078000000E2
:10424C00F8010000F8010000F8010000F80100007E
:10425C00F8010000F8010000F8010000F80100006E
:10426C00F8010000F8010000F8010000F80100005E
:10427C00F8010000F8010000F000000060000000F0
:10428C000000000000000000000000000000000022
:10429C000000000000000000000000000000000012
:1042AC0000FEFF0000FFFF0180FFFF0360FFFF0126
:1042BC00F0FEFF00F8010000F8010000F80100001A
:1042CC00F8010000F8010000F8010000F8010000FE
:1042DC00F8010000F8010000F8010000F8010000EE
:1042EC00F8010000F8010000F8010000780000005F
:1042FC0018FEFF0188FFFF03E0FFFF0FC0FFFF2741
:10430C0000FFFF390000003E0000003F0000003FAE
:10431C000000003F0000003F0000003F0000003F95
:10432C000000003F0000003F0000003F0000003F85
:10433C000000003F0000003F0000003F0000003F75
:10434C000000001E00FEFF0C00FFFF0180FFFF03BA
:10435C0000FFFF0100FEFF00000000000000000055
:10436C00000000000000000000FEFF0000FFFF0145
:10437C0080FFFF0360FFFF01F0FEFF00F80100006B
:10438C00F8010000F8010000F8010000F80100003D
:10439C00F8010000F8010000F8010000F80100002D
:1043AC00F8010000F8010000F8010000F80100001D
:1043BC00F80100007800000018FEFF0188FFFF03E1
:1043CC00E0FFFF0FC0FFFF0718FFFF0178000000A0
:1043DC00F8010000F8010000F8010000F8010000ED
:1043EC00F8010000F8010000F8010000F8010000DD
:1043FC00F8010000F8010000F8010000F8010000CD
:10440C00F8010000F8010000F000000060FEFF0061
:10441C0000FFFF0180FFFF0300FFFF0100FEFF0014
:10442C000000000000000000000000000000000080
:10443C000000000000000000000000006000000010
:10444C00F000000CF801001EF801003FF801003FDD
:10445C00F801003FF801003FF801003FF801003F70
:10446C00F801003FF801003FF801003FF801003F60
:10447C00F801003FF801003FF801003F7800003ED2
:10448C0018FEFF3988FFFF23E0FFFF0FC0FFFF0777
:10449C0018FFFF0178000000F8010000F80100008F
:1044AC00F8010000F8010000F8010000F80100001C
:1044BC00F8010000F8010000F8010000F80100000C
:1044CC00F8010000F8010000F8010000F8010000FC
:1044DC00F000000060000000000000000000000080
:1044EC0000000000000000000000000000000000C0
:1044FC00000000000000000000FEFF0000FFFF01B4
:10450C0080FFFF0300FFFF0100FEFF0C0000001EF8
:10451C000000003F0000003F0000003F0000003F93
:10452C000000003F0000003F0000003F0000003F83
:10453C000000003F0000003F0000003F0000003F73
:10454C000000003F0000003E00FEFF3980FFFF230B
:10455C00E0FFFF0FC0FFFF0718FFFF01780000000E
:10456C00F8010000F8010000F8010000F80100005B
:10457C00F8010000F8010000F8010000F80100004B
:10458C00F8010000F8010000F8010000F80100003B
:10459C00F8010000F8010000F000000060FEFF00D0
:1045AC0000FFFF0180FFFF0300FFFF0100FEFF0083
:1045BC0000000000000000000000000000000000EF
:1045CC0000FEFF0000FFFF0180FFFF0300FFFF0163
:1045DC0000FEFF0C0000001E0000003F0000003F2A
:1045EC000000003F0000003F0000003F0000003FC3
:1045FC000000003F0000003F0000003F0000003FB3
:10460C000000003F0000003F0000003F0000003EA3
:10461C0000FEFF3980FFFF23E0FFFF0FC0FFFF27E5
:10462C0018FFFF397800003EF801003FF801003F09
:10463C00F801003FF801003FF801003FF801003F8E
:10464C00F801003FF801003FF801003FF801003F7E
:10465C00F801003FF801003FF801003FF801003F6E
:10466C00F000001E60FEFF0C00FFFF0180FFFF0347
:10467C0000FFFF0100FEFF00000000000000000032
:10468C00000000000000000000FEFF0000FFFF0122
:10469C0080FFFF0360FFFF01F0FEFF00F801000048
:1046AC00F8010000F8010000F8010000F80100001A
:1046BC00F8010000F8010000F8010000F80100000A
:1046CC00F8010000F8010000F8010000F8010000FA
:1046DC00F80100007800000018000000080000003D
:1046EC00000000000000000018000000780000002E
:1046FC00F8010000F8010000F8010000F8010000CA
:10470C00F8010000F8010000F8010000F8010000B9
:10471C00F8010000F8010000F8010000F8010000A9
:10472C00F8010000F8010000F0000000600000003B
:10473C00000000000000000000000000000000006D
:10474C00000000000000000000000000000000005D
:10475C0000FEFF0000FFFF0180FFFF0360FFFF0171
:10476C00F0FEFF0CF801001EF801003FF801003FBD
:10477C00F801003FF801003FF801003FF801003F4D
:10478C00F801003FF801003FF801003FF801003F3D
:10479C00F801003FF801003FF801003F7800003EAF
:1047AC0018FEFF3988FFFF23E0FFFF0FC0FFFF2734
:1047BC0018FFFF397800003EF801003FF801003F78
:1047CC00F801003FF801003FF801003FF801003FFD
:1047DC00F801003FF801003FF801003FF801003FED
:1047EC00F801003FF801003FF801003FF801003FDD
:1047FC00F000001E60FEFF0C00FFFF0180FFFF03B6
:10480C0000FFFF0100FEFF000000000000000000A0
:10481C00000000000000000000FEFF0000FFFF0190
:10482C0080FFFF0360FFFF01F0FEFF0CF801001E8C
:10483C00F801003FF801003FF801003FF801003F8C
:10484C00F801003FF801003FF801003FF801003F7C
:10485C00F801003FF801003FF801003FF801003F6C
:10486C00F801003F7800003E18FEFF3988FFFF2357
:10487C00E0FFFF0FC0FFFF0718FFFF0178000000EB
:10488C00F8010000F8010000F8010000F801000038
:10489C00F8010000F8010000F8010000F801000028
:1048AC00F8010000F8010000F8010000F801000018
:1048BC00F8010000F8010000F000000060FEFF00AD
:1048CC0000FFFF0180FFFF0300FFFF0100FEFF0060
:1048DC0000000000000000000000000000000000CC
:1048EC0000000000000000000000000000000000BC
:1048FC0000000000000000000000000000000000AC
:10490C00000000000000000000E0000000F00100CA
:10491C0000F8030000F8030000F8030000F00100A9
:10492C0000E000000000000000000000000000009B
:10493C00000000000000000000000000000000006B
:10494C00000000000000000000000000000000005B
:10495C0000000000000000000000000000E000006B
:10496C0000F0010000F8030000F8030000F8030059
:10497C0000F0010000E0000000000000000000005A
:10498C00000000000000000000000000000000001B
:10499C00000000000000000000000000000000000B
:1049AC000A494D473A206C617267282564292C20EE
:1049BC00686175742825642900000000430000001C
:1049CC0070010020F8B500BFF8BC08BC9E467047CB
:0C49DC00F8B500BFF8BC08BC9E46704750
:0849E800A13E000831010008A6
:0449F0000D010008AD
:1049F4000006000000000000700000000000000A33
:104A0400000000000000000000000300000000009F
:104A140000080000000002000000008002022000E4
:104A2400000043594D4559412020494E46524120EA
:104A34004D4F44554C4520202020312E35200080F8
:104A440002022000000043594D4559412020494E9F
:104A5400465241204D4F44554C4520202020312EB4
:104A640035201A03530054004D0033003200000077
:104A7400000000000000000000000000750C0008A9
:104A84007927000879270008792700087927000882
:104A9400792700087927000879270008790C00088D
:104AA4007927000879270008792700087927000862
:104AB400792700086740000820000000790D0008ED
:104AC4009D0D00084D0D00084F0D0008590F0008FA
:104AD4000D0F0008510D0008A50E0008B10E0008C6
:104AE400BD0E000800000000400000007927000807
:104AF400DD0E0008792700087927000879270008C7
:104B0400890E00087927000879270008410D00085C
:104B1400AD400008120000006340000804000000DB
:104B2400CF4000082600000087400008260000004F
:104B3400720000201A000000BF40000810000000AE
:104B44000301030406080C101820300000000001C3
:104B54000203040102030406070809000000000020
:104B6400000000005C040020C40400202C05002088
:104B74000000000000000000000000000000000031
:104B84000000000000000000000000000000000021
:104B940000000000C84900080000000000000000F8
:104BA4000000000000000000000000000000000001
:104BB40000000000000000000000000000000000F1
:104BC40000000000000000000000000000000000E1
:104BD40000000000000000000000000000000000D1
:104BE40000000000000000000000000000000000C1
:104BF40000000000000000000000000000000000B1
:104C0400000000000000000001000000000000009F
:104C14000E33CDAB34126DE6ECDE05000B00000064
:104C24000000000000000000000000000000000080
:104C34000000000000000000000000000000000070
:104C44000000000000000000000000000000000060
:104C54000000000000000000000000000000000050
:04000005080001618D
:00000001FF
