:020000040800F2
:1000000000800020610100084B0600084D06000832
:100010004F060008510600085306000800000000C3
:10002000000000000000000000000000550600086D
:100030005706000800000000590600085B0600088B
:10004000B1010008B1010008B1010008490600082B
:10005000B1010008B101000805060008B10100085F
:10006000B1010008B1010008B1010008B1010008A8
:10007000B1010008B1010008B1010008B101000898
:10008000B1010008B1010008B1010008B101000888
:100090005D060008B1010008B1010008B1010008C7
:1000A000B1010008B1010008B1010008B101000868
:1000B000B1010008B1010008B1010008B101000858
:1000C000B1010008B1010008B1010008B101000848
:1000D000B1010008B1010008B1010008B101000838
:1000E000B1010008B101000861060008B101000873
:1000F000B101000800000000000000000000000046
:0C01000000000000000000005FF808F1A3
:10010C0010B5054C237833B9044B13B10448AFF345
:10011C0000800123237010BD70050020000000003A
:10012C000431000808B5064B1BB106480649AFF36D
:10013C0000800648036813B1054B03B1984708BD0E
:10014C000000000004310008740500207005002038
:10015C0000000000002100F004B80D4B5B58435028
:10016C0004310C480C4B42189A42FFF4F6AF0B4A80
:10017C0000F003B8002342F8043B094B9A42FFF409
:10018C00F9AF00F06BFA02F077FE00F0D3F870478D
:10019C0028310008000000207005002070050020A8
:1001AC00D4080020FFF7FEBF013101EB420291425F
:1001BC000BD0030F092B94BF3033373301F8013CBC
:1001CC000023000101F8023BF1E77047044B9A7AD7
:1001DC00044B0AB1052200E001221A6000F03EBA7D
:1001EC00A8080020B805002073B50F4C012001466B
:1001FC0001F078FB042601230022204669468DF885
:10020C0004308DF806208DF807208DF80530082570
:10021C00009601F0DFF920466946009501F0DAF905
:10022C006683658302B070BD0000024007B50520EF
:10023C00012101F057FB4FF48053009300238DF8FC
:10024C0004306946012308488DF807308DF80530D5
:10025C0001F0C0F94FF4004304486946009301F0E3
:10026C00B9F903B05DF804FB00080240000002403D
:10027C00014B08221A83704700000240014B0822F0
:10028C005A83704700000240014B04221A837047C6
:10029C0000000240014B04225A83704700000240C8
:1002AC00014B04221A83704700000240014B0422C8
:1002BC005A83704700000240704700B1012001F0E2
:1002CC0077BB0000094B10B593E8140014331B687E
:1002DC00D0180AD006490822FFF766FF20460549C8
:1002EC000422BDE81040FFF75FBF10BD5000F81F9F
:1002FC007400002084000020002000F043B807B5F3
:10030C000120014601F0FAFA4FF4802001F05CF96B
:10031C004FF48023009308238DF8053068460123A1
:10032C008DF8063001F00CF9FFF7E6FF03B05DF82D
:10033C0004FB000008B5FFF7E2FF02F03FFAFFF7FD
:10034C0053FFFFF773FF02F0E7FB02F0E7FCFFF748
:10035C008FFF0A484FF4805101F07DF918B9FFF76F
:10036C0093FFFFF78BFF06484FF4004101F073F940
:10037C000028EED1FFF78EFFE9E700BF000802402E
:10038C000000024008B502F0C7FB002008BD0000C9
:10039C0070B507481C460D4616461A4601F08CF8F7
:1003AC0030462946224602F039FC002070BD00BFC1
:1003BC00CC2F000870B507481C460D4616461A4649
:1003CC0001F07AF830462946224602F04BFB002019
:1003DC0070BD00BFFA2F000808B5084B4FF4004160
:1003EC001960074B4FF400721A60064B4FF0807087
:1003FC001860054801F060F8002008BDDC050020FD
:10040C00D4050020CC050020283000082DE9F04749
:10041C0007463248324C0378804653B9314B324848
:10042C0053F827305943534323600123016088F864
:10043C00003098F80030012B3DD12C4EDFF8A890FD
:10044C0033682B4DA3B9DFF89CA0D9F800103AF80B
:10045C002730284A3846FFF7ADFF81202549402236
:10046C0002F0E8F85AF82730403B336040230BE0A9
:10047C002B68204981201944402202F0DBF83368B4
:10048C00403B33602B684033012040212B6002F04D
:10049C007DF80120302101F0BBFFD9F8003040334A
:1004AC00C9F800302368403B2360134B9A68403AEC
:1004BC009A60FFF7F5FE236873B90C4A03211360A9
:1004CC000B4A88F800301360074A13600B4A11700E
:1004DC00BDE8F047FFF7EABEBDE8F087A4050020B1
:1004EC009C050020D4050020A00500208C050020D0
:1004FC00E4050020EC050020140800200E08002064
:10050C00F8B5324C324E2378356853B9314B324FF3
:10051C0053F8203059435343396030490B60012361
:10052C0023702378012B3ED12D4A002313601146F2
:10053C00D6F800E005F14007BE45254A0CD2294FFC
:10054C00D2F800E013F807C0274F01330EF807C0AC
:10055C00176801371760EBE70B60244F1E4BB7F899
:10056C0000E01968714419601C4B1D68CEEB050541
:10057C001D60184B53F82030B5FBF3FE03FB1E55E2
:10058C002DB91560C91A184A9BB2FFF701FF184B19
:10059C0039889A680220521A4FF440519A6001F03F
:1005AC0050FFFFF77DFE0D4B1B681BB1114B1B78E9
:1005BC00042B0AD1002528460121356000F0FEF8F5
:1005CC002570BDE8F840FFF771BEF8BDA40500200A
:1005DC0090050020D40500209405002098050020EB
:1005EC00E805002028080020EC0500200C0800205D
:1005FC00140800200E08002010B5012000F0DAFFCE
:10060C00A8B101200A4C00F0DFFF04232383082348
:10061C000848238300F050FF642002F03FF806489E
:10062C00012101F018F80028F9D10223638310BDD1
:10063C00000002405630000800040240704770472A
:10064C00FEE7FEE7FEE7FEE770477047704770472E
:10065C0000F03EBA4FF4802000F0B6BF3F4B82B0A2
:10066C001A6842F480721A6099683D4A0A409A608E
:10067C001A6822F0885222F001121A601A6822F4C9
:10068C0080221A609A6822F47D029A600022DA6055
:10069C00009201921A6842F480321A602F4B1A6849
:1006AC0002F400320192009A01320092019A1AB9B6
:1006BC00009AB2F5A06FF1D11B6813F4003318BF88
:1006CC0001230193019B012B05D0264B4FF00062B7
:1006DC009A6002B07047244B4FF400611A68A3F57E
:1006EC00806342F00402C3F80024D3F8002442F0E3
:1006FC000202C3F80024D3F8002442F00102C3F82C
:10070C0000245A6A42F080525A62184A11605168A9
:10071C00C906FCD49A689A609A689A609A689A603A
:10072C009A6822F47D029A609A6842F411029A60E7
:10073C001A6842F080721A60084B1A689201FBD555
:10074C009A6822F003029A609A6842F003029A6057
:10075C009A6802F00C020C2AFAD1B6E70038024073
:10076C000CC0FF8800ED00E0003C0240007000402F
:10077C0008B50120102101F04BFEBDE80840022015
:10078C004FF4805101F05DBE034610B50C46224675
:10079C001946812001F04EFF0120302101F038FE76
:1007AC00044B03221A70044B9A68141B00221A7310
:1007BC009C6010BD0E0800201408002010B50B4AD8
:1007CC000C460B490A6008730D22812001F032FFA0
:1007DC00084B14B905221A7010BD04221A7001209E
:1007EC003021BDE8104001F013BE00BF55534253F9
:1007FC00140800200E08002008B5184A1378023B94
:10080C00032B29D8DFE803F0101D0202002302207D
:10081C004FF44051137001F014FE022001F02AFE37
:10082C00B0F5805F18D110E00D4BDA7B282A13D17C
:10083C00587B0C4B19680C4B1A68BDE8084000F04B
:10084C00D7BC00200121FFF7B9FFBDE8084002200A
:10085C004FF4405101F0F5BD08BD00BF0E0800205B
:10086C00EC070020100800202408002038B5684B45
:10087C001A8800239342674C04D26749595CE154AF
:10088C000133F7E7654B61681F2A5960A1689960CD
:10089C000BD0FFF76DFF0025607B05211A22256028
:1008AC0000F0FAFB01202946AEE0E37B03F0FD02E9
:1008BC00282A11D1A17C627C090441EA0261227DC3
:1008CC001143E27C41EA0221554A1160E27DA17D8F
:1008DC0042EA0121534A1160226853494D4D8A4224
:1008EC0040F08980514A687B1268904203D8AA7BF9
:1008FC00013A0F2A05D9FFF73BFF607B0521242223
:10090C007EE0252B57D022D8122B48D00ED8042BA2
:10091C0065D007D8002B52D0032B68D1BDE83840E6
:10092C0000F0AEBB082B5ED00A2B36E01B2B3AD066
:10093C0007D8152B57D01A2B59D1BDE8384000F0E9
:10094C0093BB1E2B2FD0232B31D01D2B25E0882BB6
:10095C0049D016D82F2B3ED00BD8282B33D02A2B8E
:10096C0045D12F4B19682F4B1A68BDE8384000F061
:10097C0075BC552B37D05A2B39D1BDE8384000F017
:10098C0079BB9E2B2FD003D88A2B2CD08F2B04E035
:10099C00AA2B28D0AF2B26D0A82B24D027E0BDE83B
:1009AC00384000F0DBBABDE8384000F07BBBBDE856
:1009BC00384000F0EFBABDE8384000F01FBBBDE88E
:1009CC00384000F091BB164B1968164B1A68BDE8FD
:1009DC00384000F00DBCBDE8384000F067BBBDE806
:1009EC00384000F09BBBBDE8384000F0ADBBFFF7D2
:1009FC00BFFE607B02E0FFF7BBFE687B0521202277
:100A0C0000F04AFB01200021BDE83840FFF7D6BEBC
:100A1C000C080020EC0700202808002014080020F7
:100A2C00100800202408002055534243B405002030
:100A3C00012807D002D3022809D0704701201021C9
:100A4C0001F0E6BC02204FF4805101F0FABCFFF734
:100A5C008FBE000038B5164C02201649E57B01F01C
:100A6C00FDFD154B1880154B187810B1012804D0DA
:100A7C0011E0BDE83840FFF7F9BE2A2D08D1104B24
:100A8C00607B19680F4B1A68BDE8384000F0E6BB74
:100A9C00FFF7CEFF01E0FFF76BFE607B0521242200
:100AAC0000F0FAFABDE8384002200021FFF786BEBC
:100ABC00EC070020280800200C0800200E0800205D
:100ACC001008002024080020FFF796BEFFF7C2BFD5
:100ADC0070B52A4C2A4D23682A4E9BB22B802A884B
:100AEC0033881340180401D501F09CFB2A88338805
:100AFC001340590505D54FF6FF332360224B5B6835
:100B0C0098472A8833881A40920444BF4DF6FF72E6
:100B1C0022602A881340D80405D54EF6FF73236053
:100B2C00002000F0C7F92A883388134019050BD52B
:100B3C00164B1B7813B100F041F902E0022000F0D3
:100B4C00B9F94FF2FF7323602A8833881A40920553
:100B5C0007D54FF6FF5222600D4A11780131C9B208
:100B6C0011702A881340DB0507D54FF6FF6323600D
:100B7C000720BDE8704000F09DB970BD445C00409A
:100B8C0068080020CC080020CC000020BC05002008
:100B9C00B20500207047704721B900280CBF002017
:100BAC00022070470220704720B9034B01221B68BA
:100BBC001A82704701487047C8080020B40500200D
:100BCC0010B5FFF77FFB054B00241B689C7200F0EF
:100BDC00DDF801F01FFD024B1C6010BDC8080020A1
:100BEC00B805002038B5324B00249C72314A324B88
:100BFC00D2791B6820465A7201F0F4FB20464FF460
:100C0C00007101F0F7FB2D4D2046202101F000FC76
:100C1C002046182101F08EFC204695F82C1001F08E
:100C2C00C3FC5821204601F075FC204601F03EFC27
:100C3C00204601F028FC2146012001F0DBFB0120BD
:100C4C00982101F067FC0120202101F0E1FB2146F5
:100C5C00012001F0F6FB2146022001F0CBFB022023
:100C6C00D82101F067FC95F82C10022001F09CFCB7
:100C7C0002204FF4405101F0E4FB2146022001F028
:100C8C00C7FB95F82C10204601F08EFC204601F095
:100C9C00FAFB204601F076FA094B01221A60094B47
:100CAC00094A1A60094B1C70BDE83840FFF704BBB9
:100CBC00A80800206E300008C8080020CC000020D6
:100CCC00B8050020EC070020555342430E080020C5
:100CDC00014901F053B800BFFC000020014901F0AC
:100CEC004DB800BFC4000020054B1B68DB78052BFA
:100CFC0004D8044901EBC30101F040B8002070474F
:100D0C00C80800200401002010B50E4B1B681A788F
:100D1C0002F07F02212A12D1FF2810D15A8872B911
:100D2C005C6864B9012001F0E3FB022001F0CEFB0A
:100D3C00054A064B20461A60054B1C7010BD02205C
:100D4C0010BD00BFC808002055534243EC070020DB
:100D5C000E0800200B4B1B681A7802F07F02212A28
:100D6C000DD1FE280BD1588848B95A68B2F5803F8E
:100D7C0005D1054A58829A6101221A8270470220D5
:100D8C00704700BFC8080020B50B000808B501204B
:100D9C00FFF793FA064B01221A60064A0020064917
:100DAC00186010604FF4E0520A801A6008BD00BF52
:100DBC00405C0040445C0040CC08002073B500222D
:100DCC002F4B0192196889B202F1805000F5B8508E
:100DDC00800004682B48A4B240F822400132082A53
:100DEC000646F1D141F4806221F001011A6088B20B
:100DFC0042F001021A6040F480621A60224C2268B0
:100E0C005505FBD54FF6FF322260002256F82250D2
:100E1C0002F1805101F5B85101328900ADB2082AB6
:100E2C000D60F3D140F4816119601A68144892B2D4
:100E3C0042F004021A60154A13680193136823F0F8
:100E4C00030343F001031360114B196941F00401D2
:100E5C0019612168C90401D430BF0AE00A494EF671
:100E6C00FF740C6004684FF6F77121400160019922
:100E7C0011601A6922F004021A6102B070BD00BF41
:100E8C00405C004070080020445C00400070004052
:100E9C0000ED00E010B5064C4FF6FB7322681340D2
:100EAC002360FFF793F94FF43F43236010BD00BF5D
:100EBC00405C004010B5264C072818BF20702378E2
:100ECC00052B41D8DFE803F0030B1317212C214B22
:100EDC001B6813B9FFF7DEFF36E0052335E0FFF79B
:100EEC00D9FF042323701B4B01221A6010BD02236F
:100EFC006370032329E06378013BDBB26370637892
:100F0C0023BB134B04221A7010BD134B1A6892B2F8
:100F1C0042F010021A60052323700A23637010BD7F
:100F2C006378013BDBB26370637803F0FF016BB94C
:100F3C00094A4FF6EF73106803401360044B062206
:100F4C001A70044B196010BD0623237010BD00BF2E
:100F5C006C080020C0050020405C0040094B1A7C46
:100F6C00D2070AD40849094A002814BF084610467B
:100F7C00D97C242928BF242101E005480521FFF74D
:100F8C0003BC00BFEC0700202A0000204E0000200C
:100F9C00AD05002010B50446FFF71EFA68B1134BDF
:100FAC00012002229A7001463A221A73FFF706FCBE
:100FBC00BDE810400020FFF73BBD0D4B0D4853F82A
:100FCC0024300C211A0E02711A0C4271C3711A0AC8
:100FDC00094B827153F824301A0C42721A0A82722D
:100FEC00C372BDE81040FFF7CFBB00BF0800002064
:100FFC00DC0500201E000020D405002010B504469E
:10100C00FFF7EAF968B1144B012002229A700146ED
:10101C003A221A73FFF7D2FBBDE810400020FFF70D
:10102C0007BD0E4B0E4853F824300821013B1A0E15
:10103C0002701A0C4270C3701A0A0A4B827053F871
:10104C0024301A0E02711A0C42711A0A8271C37181
:10105C00BDE81040FFF798BB08000020DC0500201D
:10106C00A5050020D405002001480421FFF78CBB06
:10107C001A00002001480821FFF786BB0000002061
:10108C00034B0448D97C122928BF1221FFF77CBBE3
:10109C00EC07002008000020014B99701A73704770
:1010AC000800002000200121FFF788BB08B50C4B7D
:1010BC009A683AB91B7C03F0040303F0FF000BB9E8
:1010CC00012109E00220FFF7B3FC064B05229A70C0
:1010DC0024221A7301200021BDE80840FFF76EBBE3
:1010EC00EC0700200800002008B5FFF775F968B17F
:1010FC00094B012002229A7001463A221A73FFF71B
:10110C005DFBBDE808400020FFF792BC0121BDE863
:10111C000840FFF753BB00BF0800002008B5FFF7DD
:10112C005BF968B1074B012002229A7001463A2202
:10113C001A73FFF743FBBDE808400020FFF778BCAB
:10114C0008BD00BF0800002008B50B4B9A680AB90F
:10115C00002004E093F90C30002BF9DB0220FFF7A0
:10116C0067FC064B05229A7020221A73012000217D
:10117C00BDE80840FFF722BBEC0700200800002068
:10118C0010B5174C1A4454F82040A2420CD92A2905
:10119C0002D10220FFF74CFC0020FFF749FC114B59
:1011AC0005229A70212211E00F4A52F82020534355
:1011BC000E4A92689A4210D02A290CBF02200020B5
:1011CC00FFF736FC074B05229A70242201200021E0
:1011DC001A73FFF7F3FA002010BD012010BD00BFF9
:1011EC00DC05002008000020D4050020EC070020BE
:1011FC002DE9F041164E804633780D461446FBB966
:10120C00144F2821787B2A462346FFF7B9FFE8B113
:10121C0097F90C30002B05DA02233370404629462F
:10122C0022460FE00220FFF703FC0B4B05229A70BD
:10123C0024221A7301200146BDE8F041FFF7BEBA23
:10124C00022B03D1BDE8F041FFF7E0B8BDE8F08117
:10125C000E080020EC07002008000020F8B5174D00
:10126C000F462C7813460CBB154E2A21707B3A4640
:10127C00FFF786FF00B396F90C30002B08DB012337
:10128C002B7002204FF44051BDE8F84001F0D9B862
:10129C002046FFF7CDFB0B4B05229A7024221A73C4
:1012AC0021460120BDE8F840FFF788BA012C03D194
:1012BC00BDE8F840FFF724B9F8BD00BF0E080020C8
:1012CC00EC070020080000200A2810B5044602D1C3
:1012DC000D20FFF7F9FF064A13681BB1591C1C704F
:1012EC00116010BD034B1B680BB12046984710BD15
:1012FC00C40500209408002010B5441E14F8010FFA
:10130C0010B1FFF7E1FFF9E710BD2DE9F04F0246F0
:10131C0085B00D461078002800F0CB80252801D030
:10132C00561C6BE05378302B03D1D61C93780124D8
:10133C0007E02D2B02D0961C002402E09378D61CDB
:10134C0002244FF00008A3F13002092A07D80A2220
:10135C0002FB083816F8013BA8F13008F3E703F05C
:10136C00DF014C29324603D1137844F004040136D2
:10137C00002B00F09E80602B86BFA3F12002D2B21E
:10138C001A464F2A40D006D8432A2FD0442A0DD0D3
:10139C00422A37D031E0552A08D0582A2BD0532A6C
:1013AC002BD12F1DD5F80090002501E00A202CE050
:1013BC0019F805304BB10135FAE7454505F1010A3D
:1013CC0006D22020FFF780FF5546A00701D4F4E792
:1013DC0055464846FFF790FF454502D33D463246F9
:1013EC0098E72020FFF770FF0135F5E728782F1DCF
:1013FC00FFF76AFFF2E7102007E01846FFF764FFDB
:10140C002F46EBE7022000E00820442A296805F16A
:10141C00040704D10029BCBF494244F0080400224F
:10142C00B1FBF0FC00FB1C115FFA81FEBEF1090F51
:10143C00614606D9782B14BF07252725AE445FFAE1
:10144C008EFE0EF1300E551C0DF802E0BCF1000FB3
:10145C0004D0102D01D02A46E2E70F22210705D532
:10146C0004AB1D442D2305F8103C951C14F0010F02
:10147C000CBF4FF0200B4FF0300BA946A30709D43B
:10148C00C14509F1010A04D25846FFF71DFFD146A8
:10149C00F4E7D146013D1DF80500FFF715FF002DBF
:1014AC00F8D1C1459AD22020FFF70EFF09F10109AE
:1014BC00F7E705B0BDE8F08F0FB407B504A951F8F4
:1014CC00040B0191FFF721FF03B05DF804EB04B0AE
:1014DC0070470000C27810B503780AB3164A4478F6
:1014EC00D26803F16043D243C2F30222C2F1040179
:1014FC00C9B204FA01F10F2444FA02F28478C9B299
:10150C0022400A431201D2B203F5614383F800234F
:10151C0003780122590903F01F0302FA03F306E0D2
:10152C005909012203F01F0302FA03F32031034A85
:10153C0042F8213010BD00BF00ED00E000E100E0FA
:10154C00837930B50168027943B3194BCC431D68DC
:10155C0002F1804225401D605D6802F582322C400C
:10156C005C6014682143116002689C68D1430C4094
:10157C009C60DC682140D9604179102906D19968BA
:10158C0011439960D9680A43DA6030BD01F1804398
:10159C0003F5823319680A431A6030BD02F18043A7
:1015AC0003F582331A6822EA0101196030BD00BFCD
:1015BC0000040140034B5B6918420CBF0020012062
:1015CC00704700BF00040140014B5861704700BFD9
:1015DC00000401402DE9F0410F68002301229A40DC
:1015EC0002EA0705954231D15A000324944006685B
:1015FC00E443264006600E79D0F800C006FA02F8E3
:10160C00013E48EA0C0C012EC0F800C015D891F828
:10161C0005C086680CFA02FC2640866086684CEA97
:10162C00060686608688B6B226EA050585808D7921
:10163C0086889D403543ADB28580C5682C40CD79F8
:10164C00C46005FA02F2C4682243C2600133102B55
:10165C00C4D1BDE8F081038A19420CBF00200120DF
:10166C00704701F00703C90800EB81009B000F21B4
:10167C0099409A4010B5046A24EA01010162016A9A
:10168C001143016210BD000008B50B4B984207D105
:10169C004FF40010012100F049F94FF4001006E05E
:1016AC004FF48000012100F041F94FF4800000213B
:1016BC00BDE8084000F03AB900540040F0B585B0E0
:1016CC000446868868460D46314F00F0B9F80298FA
:1016DC0026F03F063604B0FBF7F7360C1FFA87FCF2
:1016EC004CEA0606A68021882A6821F00101294BC4
:1016FC000904090C9A4221800DD85300B0FBF3F376
:10170C009BB20CF1010C032B1FFA8CFC98BF042329
:10171C00A4F820C022E0E9884BF6FF73994205D16A
:10172C0002EB4202B0FBF2F39BB206E019235343E7
:10173C00B0FBF3F39BB243F48043C3F30B020AB93F
:10174C0043F001034FF4967257434FF47A7297FBB0
:10175C00F2F70137BFB243F400432784A3832388F5
:10176C0069899BB243F0010323802388AA8823F460
:10177C00816323F002031B040A431B0C13439BB22B
:10178C0023802A89AB8913439BB2238105B0F0BD1A
:10179C0040420F00A0860100038819B19BB243F0B0
:1017AC00010303E023F001031B041B0C03807047AF
:1017BC00038819B19BB243F4807303E023F4807364
:1017CC001B041B0C03807047038819B19BB243F4B4
:1017DC00007303E023F400731B041B0C038070479D
:1017EC0012B141F0010101E001F0FE0101827047EC
:1017FC0001827047828A008B92B221F07F4342EAC9
:10180C0000401840431A58425841704782B0002398
:10181C00009301930B0F01900093009B21F07F41EB
:10182C0013B1019B143302E0019B090C1833019393
:10183C00019B1B6819420CBF0020012002B07047AD
:10184C00234B10B59A6802F00C020C2A20D8DFE862
:10185C0002F01F1F1F1F071F1F1F091F1F1F0B0039
:10186C001C4B1DE01C4B1BE099681C4CC1F38341C5
:10187C009A68615C9B68C9B2DB0354BF154B164B6D
:10188C00C2F3815259430132B1FBF2F2026008E01B
:10189C005B684FF40042C3F34233013302FA03F3A3
:1018AC0003600B490E4A8B68C3F30313D45C0368C3
:1018BC00E34043608C68C4F30224145D23FA04F4FF
:1018CC0084608968C1F3C221525CD340C36010BDEF
:1018DC00003802400024F40000127A002E0100208F
:1018EC0037010020044BDA6909B1104301E022EA08
:1018FC000000D861704700BF00380240044B1A6AE0
:10190C0009B1104301E022EA00001862704700BFE1
:10191C0000380240044B5A6A09B1104301E022EA34
:10192C0000005862704700BF00380240044B9A69AF
:10193C0009B1104301E022EA00009861704700BF32
:10194C00003802400B8810B54C88028823438C88E1
:10195C0002F441522343CC8823430C8923434C8902
:10196C0023438C892343CC89234313439BB20380A9
:10197C00838B23F400631B041B0C83830B8A03826D
:10198C0010BD038819B19BB243F0400303E023F070
:10199C0040031B041B0C03807047808980B2704786
:1019AC0081817047038919420CBF002001207047C8
:1019BC00044B5A6810B142F0010201E022F001021E
:1019CC005A6070470000014001F003039B000F2296
:1019DC009A40984001F0FC0101F1804101F5803101
:1019EC0010B58C6824EA02028A608A6802438A6015
:1019FC0010BD000010B5064C18B9236801221A82DC
:101A0C0010BD044B1B681B68984720680A3010BD3A
:101A1C00C8080020C408002010B5064C18B923686B
:101A2C0001221A8210BD044B1B689B6898472068E2
:101A3C000C3010BDC8080020C408002010B5204B85
:101A4C0018B91B6802221A8210BD1E4A19680020A0
:101A5C0010800C78134614F07F040DD14A7A91064D
:101A6C0044BF0221197012F0400F1A7814BF42F0D3
:101A7C00010222F0010214E0012C1FD0022C1ED115
:101A8C00497901F00F02920002F1804202F5B8424E
:101A9C0011F0800F126806D002F03002102A07D124
:101AAC0001221A7004E002F44052B2F5805FF6E7AE
:101ABC00054B1B681B699847024810BD104610BDAA
:101ACC00C808002098080020C4080020234A2DE9EB
:101ADC00F84314689046238A267A214FA3B9042E22
:101AEC0012D120490A78012A0AD11F4A10681F4ACC
:101AFC0080B202445200136030223A800B7027E00F
:101B0C0010233B80072623E0A58AAB428CBF02261C
:101B1C0004269D4228BF1D462846A3699847814646
:101B2C00002000F017FD2A460146484600F030FC24
:101B3C002946002000F02AFD238A4FF440525B1BFB
:101B4C002382638A1D4430233B80094B65821A80B3
:101B5C00D8F800301E72BDE8F88300BFC80800201A
:101B6C00D0080020C8050020505C00400230002046
:101B7C00CE08002010B50A4B0A491B684978DA7860
:101B8C0091420AD3997841B99C8834B99A72064B20
:101B9C001B685B689847204610BD022010BD00BF33
:101BAC00C80800202C010020C408002038B50E4ABB
:101BBC000E4C1268236892695879D978904723683B
:101BCC009A7A7AB170B91A7962B99D7855B9084B7D
:101BDC001B68DB689847236828465A79DA72DA78EA
:101BEC001A7338BD022038BDA0080020C808002098
:101BFC00C408002038B5314B1B68187810F07F00F2
:101C0C0004D15A7A22F020025A7238BD022853D1DC
:101C1C005A88002A51D11A79002A4ED15A79284D66
:101C2C0022F08000840004F1804101F5B84109687C
:101C3C002D7812F0800F14BF01F0300101F44051E7
:101C4C00A84239D2002937D09B7A002B34D004F12A
:101C5C00804404F5B844120623680CD503F0300315
:101C6C00102B23D1C4B2204600F042FC2046302178
:101C7C0000F0CEFB1AE003F44053B3F5805F15D1AE
:101C8C0028B9104B93F82C1000F08EFC01E000F0FA
:101C9C001DFC236823F4804323F070039BB283F470
:101CAC00405343F4004343F080032360064B1B680E
:101CBC005B699847002038BD022038BDC808002059
:101CCC002C010020CC000020C408002038B51F4B8C
:101CDC001F4D19682D784A7922F08004A30003F176
:101CEC00804000F5B840006812F0800F14BF00F07F
:101CFC00300000F44050AC4226D24C8824BB18B3C0
:101D0C00897A09B303F1804303F5B84312F0800FCD
:101D1C001A6807D022F4E04222F0400292B282F01C
:101D2C00100206E022F4804222F0700292B282F499
:101D3C00805242F4004242F080021A60054B1B684C
:101D4C009B699847002038BD022038BDC808002088
:101D5C002C010020C408002008B5064B1B685A7AD9
:101D6C0042F020025A72044B1B68DB699847002032
:101D7C0008BD00BFC8080020C4080020054B1A6825
:101D8C00538A18B98988CB1A13827047086818448B
:101D9C00704700BFC808002008B50B4B002093F813
:101DAC002C1000F001FC094B1B68187A082806D18E
:101DBC00074B4FF480521A80064B10221A80B0F158
:101DCC0009035842584108BDCC000020C808002027
:101DDC00CE080020D0080020F7B5964F964B3A68F5
:101DEC00964D92B213442E685B001C68337A092B13
:101DFC0015D0A4B2640004F1804404F5C0442378E7
:101E0C00337063787370A08800F0FEFB70802089BB
:101E1C002E6800F0F9FBB080A2892B68DA802B6861
:101E2C0001221A72DA885C78002A5ED11A7812F0D4
:101E3C007F0237D1092C02D1FFF79CFE41E0052C23
:101E4C000FD193F90320002A01DA08234AE09A788B
:101E5C00002AFAD19A88002AF7D19B7A002B34D029
:101E6C00F3E7032C10D1DA78012A07D0744B204603
:101E7C001B685B699847032825D132E09B88002BAF
:101E8C00F4D1FFF769FF1CE0012CEFD1DA78012ABD
:101E9C00ECD19A88002AE9D15B7A9906E6D5FFF74E
:101EAC00A9FE0EE0012A04D10B2CDFD1FFF77EFE38
:101EBC0007E0022ADAD1012CF1D0032CD6D1FFF79E
:101ECC0005FF10B1D2E70028BFD13A685D4B92B242
:101EDC0013445B0000221A605B4B30221A800623ED
:101EEC0000E009232A681372D0E0062C13D11A786B
:101EFC00520678D19A78524B012A02D11B68DB69C1
:101F0C0068E0022A02D11B681B6A63E0032A6AD1CB
:101F1C001B685B6A5EE0002C3DD15988002962D1B8
:101F2C005A6822F47F42B2F5003F5CD11A7812F065
:101F3C007F0204D19B88002B00F0AC8053E0012A77
:101F4C000DD13F4A587912689269904700284AD1BE
:101F5C003A4B1B689B7A002B40F09C8043E0022A92
:101F6C0041D15B79394803F00F018A0002F18042BC
:101F7C0002F5B8421268007813F0800F14BF02F01B
:101F8C00300202F4405281422DD213F0700F2AD14C
:101F9C00002A7FD127E0082C03D11B785B067BD06D
:101FAC0021E00A2C1FD11A7802F07F02012A1AD1E3
:101FBC009A7AC2B15988B1B95A6822F47F42B2F503
:101FCC00803F10D11E4A58791268926990470028B8
:101FDC0064D008E03BB12A68002454829361204607
:101FEC00984720460AE0164B1A682B6812695878F5
:101FFC009047032802D1114B1B6805E02B684FF664
:10200C00FF711A8A8A4201D1092203E0022800D00A
:10201C0012B908221A7239E093F9001000292FDA4C
:10202C00D988019101988242054811D9019A1A82E6
:10203C001FE000BF505C004004300020C8080020A6
:10204C00A008002002300020D00800202C01002025
:10205C008A420ED2016891F82C108A4201D20021DA
:10206C0005E092FBF1F401FB142212B901210C4A98
:10207C001170026892F82C209A82FFF727FD05E078
:10208C0003221A72074B4FF440521A80FFF784FE5A
:10209C0003B0F0BD044B9EE7044B9CE7044B9AE75E
:1020AC00C8050020CE080020491A0008011A0008B3
:1020BC00251A0008F8B52D4D2C68237A022B4DD02B
:1020CC00042B4BD0032B01D0052B41D1A369228AC1
:1020DC00ABB1A2B1A68A964228BF164630469847A5
:1020EC00238A07469B1B2382638A00203344638226
:1020FC0000F03EFA32460146384600F061F9238A78
:10210C0053B11B4B00204FF4405201461A8000F093
:10211C003DFA184B30221A80238AA28A9A4202D89E
:10212C002B68032202E01BB12B6805221A720CE00B
:10213C002A6806211172104A1168104A89B20A44A1
:10214C00520013600B4B30221A802B681B7A06E06E
:10215C00072B03D10A4B1B68DB68984708232A68B6
:10216C001372BDE8F840FFF717BE00BFC808002087
:10217C00CE080020D0080020505C00400230002027
:10218C00A008002070B50D4B1D780023AB4210D277
:10219C0003F1805202F5B8529400266843F40041D2
:1021AC0040F60F7241F0800132400A432260013345
:1021BC00ECE7034B40F08000186070BD2C01002050
:1021CC004C5C004010B5134C23681A7A022A01D0DB
:1021DC00042A04D1FFF77AFC23681B7A13E0062A41
:1021EC0010D15A78052A09D11A78520606D1D87816
:1021FC00FFF7C8FF084B1B681B6A9847074B1B6807
:10220C009B689847082322681372BDE81040FFF7BB
:10221C00C3BD00BFC8080020C4080020A0080020CF
:10222C007047000073B50023ADF80630504B1A68A8
:10223C00504B91B21204198040F197801A884E4C81
:10224C0002F00F022270002A61D14C4C4C4E2268D5
:10225C004C4D92B23280328802F030022A803288A1
:10226C0002F44052328021684BF6BF720A4082F46D
:10227C00005282F0200242F4004242F080022260BE
:10228C001B88D80607D4226848F60F7313402360C6
:10229C00FFF798FF1BE023689BB2ADF80630BDF842
:1022AC000630190507D5226840F68F73134023605A
:1022BC00FFF792FD0BE0BDF806301BB2002BB5DA30
:1022CC00226840F68F7313402360FFF7F3FE2268F9
:1022DC004BF6BF7313403288D204328848BF83F464
:1022EC00805396042A8848BF83F40053D4062A8866
:1022FC0048BF83F01003900648BF83F0200343F4DB
:10230C00004343F080031D4A9BB213602DE0930001
:10231C0003F1804303F5B843196889B2ADF8061090
:10232C00BDF8061009B2002909DA186840F68F7159
:10233C0001401960144B013A53F822309847BDF80C
:10234C00063019067FF572AF217848F60F728B00B4
:10235C0003F1804303F5B8431868013902401A6051
:10236C000A4B53F82130984760E702B070BD00BFAC
:10237C00445C004068080020A4080020005C004079
:10238C00CE080020D0080020A80000208C000020DF
:10239C0030B501F10051013201F5405152104900A4
:1023AC000023934200F1020009D010F8015C10F8F0
:1023BC00024C44EA052421F823400133F1E730BDF7
:1023CC0010B501F10051013201F540515210490094
:1023DC000023934205D051F8234020F813400133D9
:1023EC00F7E710BD4FF6F873014A034013607047CE
:1023FC00505C0040800000F1804000F5B84003685C
:10240C0023F4EC4323F0700319438BB20360704741
:10241C00800000F1804000F5B8400368CA0623F440
:10242C00E04323F040039BB248BF83F010038A06BD
:10243C0048BF83F0200343F4004343F08003036060
:10244C007047800000F1804000F5B8400368CA0472
:10245C0023F4804323F070039BB248BF83F4805372
:10246C008A0448BF83F4005343F4004343F08003D1
:10247C0003607047800000F1804000F5B8400068B0
:10248C0000F440507047800000F1804000F5B840E7
:10249C00036823F4804323F070039BB283F440530E
:1024AC0043F4004343F0800303607047800000F165
:1024BC00804000F5B840036823F4F8731B051B0D2E
:1024CC0043F4004343F0800303607047800000F145
:1024DC00804000F5B84003685B0408D5026840F6FC
:1024EC000F73134043F4404343F080030360704781
:1024FC00800000F1804000F5B84003685B0608D509
:10250C00026840F60F73134043F4004343F0C003DA
:10251C0003607047064B49081B6849009BB203EBEC
:10252C00C00000F1005000F54050400001607047C1
:10253C00505C0040054B49081B6849009BB203EBFB
:10254C00C000034B03445B0019607047505C0040B3
:10255C0004300020054B1B689BB203EBC00000F15C
:10256C00005000F54050400000887047505C00401F
:10257C00044B1B689BB203EBC000034B03445B0092
:10258C0018887047505C004004300020044B1B68D6
:10259C009BB203EBC000034B03445B001960704714
:1025AC00505C0040023000200D4B3E291B689BB252
:1025BC0003EBC0000B4B03444FEA430209D94B0910
:1025CC00C80604BF03F1FF339BB29B0243F40043E4
:1025DC0004E04B08C90748BF01339B0213607047E6
:1025EC00505C004006300020054B1B689BB203EB8F
:1025FC00C000044B03445B001868C0F3090070472B
:10260C00505C004006300020C3B2000A40EA0320B0
:10261C0070470000044B0020044A18604FF43F43FD
:10262C001380034A13607047445C0040CC080020C0
:10263C00405C004070B500F07F0528460E461446FD
:10264C00FFF788FFA4B2014622463046FFF7A0FEF2
:10265C0028462146FFF79AFF002070BD70B500F0A8
:10266C007F0528460E46FFF7BFFF04462846FFF7B6
:10267C007FFF224601463046FFF7A2FE204670BD82
:10268C0010F1FF3009D300BF00BF00BF00BF00BF77
:10269C0000BF00BF00BF00BFF2E7704738B505466A
:1026AC0055B14FF47A74013C0120A4B2FFF7E8FF56
:1026BC00002CF8D1013DF3E738BD000037B50023FD
:1026CC0001934FF6FF7305460C46019336484FF4C1
:1026DC000031FFF79BF830B1019B5A1E0192002B81
:1026EC00F4D101205EE030480121FFF761F84FF68C
:1026FC00FF7301932C482D49FFF77CF830B9019BEF
:10270C005A1E0192002BF5D102204BE02648C02125
:10271C000022FFF765F84FF6FF7301932248244916
:10272C00FFF768F830B9019B5A1E0192002BF5D1C6
:10273C00032037E01C482946FFF75AF84FF6FF7381
:10274C00019319481B49FFF755F830B9019B5A1EE4
:10275C000192002BF5D1042024E013482146FFF709
:10276C0047F84FF6FF7301930F481249FFF742F8F1
:10277C0030B9019B5A1E0192002BF5D1052011E0B6
:10278C0009480121FFF720F84FF6FF730193064823
:10279C000949FFF73BF828B1019B5A1E0192002B07
:1027AC00F5D1062003B030BD0058004001000300F5
:1027BC0082000700840007001000001070B5032091
:1027CC0088B00121FFF78EF80124002503234F4820
:1027DC0002A98DF80D3002948DF80C508DF80F5025
:1027EC00FEF7F8FE80234A4802A90293FEF7F2FE98
:1027FC004023474802A90293FEF7ECFE022344480B
:10280C0002A902938DF80C408DF80E508DF80F3004
:10281C008DF80D40FEF7DEFE3D4C80212046FEF784
:10282C001AFF10B902232383F6E702200121FFF7D8
:10283C0059F84FF480000121FFF76CF833480A2156
:10284C000422FEF70EFF042230480B21FEF709FF8D
:10285C000223012400254FF480668DF8143004A95E
:10286C0003232A488DF8153004968DF816408DF800
:10287C001750FEF7AFFE4FF4006304A923480493EE
:10288C00FEF7A8FE2348FEF7FFFE4BF6FF73ADF8EC
:10289C0016304FF48043ADF81C301F4B04A91D4873
:1028AC000493ADF81450ADF81850ADF81A60FEF75B
:1028BC0005FF21461748FEF76FFF4D210620FFF755
:1028CC00FDFE21462020FFF7F9FE20462146FFF7AA
:1028DC0015F829462046FFF777F8082304A88DF849
:1028EC00153004948DF814508DF81640FEF728FE20
:1028FC00062301A88DF804308DF805508DF806508C
:10290C008DF80740FEF7E6FD08B070BD00040240EC
:10291C000000024000580040801A060037B5022023
:10292C000121FEF7DFFF4FF480400121FEF7F2FF9B
:10293C001F4C4FF40053009302238DF804300025F4
:10294C008DF807302046032369468DF805308DF845
:10295C000650FEF73FFE4FF4804320466946009335
:10296C00FEF738FE4FF40043204669460093FEF70D
:10297C0031FE20460D210522FEF773FE20460E2166
:10298C000522FEF76EFE204605220F21FEF769FE9A
:10299C004FF4805300932046012369468DF8043090
:1029AC008DF806508DF80730FEF714FE03B030BDDD
:1029BC000004024037B5012001460C4CFEF792FF93
:1029CC0001234FF480758DF8043000228DF8073008
:1029DC0020460323694600958DF806208DF80530B6
:1029EC00FEF7F8FD258303B030BD00BF00000240A8
:1029FC0013B504200121FEF775FF01234FF4007479
:102A0C008DF8043000228DF80730074803236946FF
:102A1C008DF8053000948DF80620FEF7DBFD034B96
:102A2C001C8302B010BD00BF000002400008024031
:102A3C0010B504460A480221FEF7B4FF0028F9D06D
:102A4C0007482146FEF7ACFF05480121FEF7AAFF17
:102A5C000028F9D00248FEF7A0FFC0B210BD00BF9D
:102A6C00003800402DE9F041144E4F0A4FF48053CA
:102A7C0073830446BFB20320C1F308059046FFF7E9
:102A8C00D7FFC7F3C710FFF7D3FF2B0A03EB4700A1
:102A9C00C0B2FFF7CDFFE8B2FFF7CAFF04EB0805A1
:102AAC00AC4205D0A520FFF7C3FF04F8010BF7E7F4
:102ABC004FF480533383BDE8F08100BF0004024023
:102ACC0010B5084C4FF480536383D720FFF7B0FF49
:102ADC00A520FFF7ADFF0306FAD54FF480532383EF
:102AEC0010BD00BF0004024038B50A4C4FF48055AD
:102AFC0065833D20FFF79CFF2A20FFF799FF80207C
:102B0C00FFF796FFA620FFF793FF2583BDE838401B
:102B1C00FFF7D6BF0004024010B586B0FFF74AFF9E
:102B2C00FFF766FFFFF7FAFE144B154C4FF480527B
:102B3C001A8300234FF48272ADF80430ADF80620EE
:102B4C00ADF808304FF40072ADF80A30ADF80C3027
:102B5C00ADF81030ADF812302046072301A9ADF8BE
:102B6C000E20ADF81430FEF7EDFE20460121FEF7E5
:102B7C0008FFFFF7B9FF06B010BD00BF000402400C
:102B8C00003800402DE9F0434FEA5129ADF5017DA5
:102B9C001FFA89F84FEA492906460C461546C1F337
:102BAC000807684649464FF40072FFF75BFF0023A5
:102BBC009AB2954207D000A9C9EB04020A44F15C11
:102BCC00D1540133F4E7DFF850904FF48053A9F857
:102BDC001A308220FFF72CFFC8F3C710FFF728FF2D
:102BEC003B0A03EB4800C0B2FFF722FFF8B2FFF735
:102BFC001FFF00244F46A3B29D4204D0305DFFF767
:102C0C0017FF0134F7E74FF480533B83FFF758FF6E
:102C1C000DF5017DBDE8F083000402402DE9F84379
:102C2C001346C2F34F28C1F3080492B205460E4670
:102C3C00C2F30807CCB9B8F1000F4BD04FEA4828C3
:102C4C0000F50079C1440446711B2144204604F56B
:102C5C0000744C4504D04FF40072FFF793FFF3E778
:102C6C0005EB080008EB06010EE0C4F50074A4B2F5
:102C7C00B8F1000F0AD1A7422CD93F1B2246FFF70F
:102C8C0081FFBFB22819A1193A4623E01B1B22462B
:102C9C005F0AC3F30808FFF775FF04EB0609BFB220
:102CAC002C447F0204F500753D442646C4EB090113
:102CBC003144304606F50076AE4204D04FF4007233
:102CCC00FFF760FFF2E7E01907EB0901B8F1000F1D
:102CDC0004D04246BDE8F843FFF754BFBDE8F88383
:102CEC0037B501200146FEF7FDFD01238DF80430B8
:102CFC00094C00238DF80630022320258DF807306F
:102D0C0020460323694600958DF80530FEF762FCDA
:102D1C00658303B030BD00BF000002402DE9F04FC9
:102D2C00062089B00121FEF7DDFD08AD4FF40063EC
:102D3C00DFF8408145F8143D4B4F00240126022258
:102D4C004FF003094046294600938DF81320019259
:102D5C004FF4007A8DF812408DF811908DF81060B8
:102D6C00FEF738FC384629464FF4005BCDF80CA032
:102D7C00FEF730FC40462946CDF80CB0FEF72AFC95
:102D8C00FFF7AEFF48463146FEF7ACFD31464FF437
:102D9C008050FEF7B3FD019A08210391384629466D
:102DAC008DF810208DF812408DF811908DF813606D
:102DBC00FEF710FC2022384629460392FEF70AFC47
:102DCC00384649460522FEF74CFC05210A46384692
:102DDC00FEF747FC4FF01009384629468DF8104095
:102DEC008DF81340CDF80C908DF81260FEF7F2FBC5
:102DFC001E4A2946104601928DF81240CDF80C90CF
:102E0C008DF810608DF81360FEF7E4FBADF80C4004
:102E1C00ADF81040ADF81240ADF81440ADF81840C4
:102E2C00ADF81A404FF48271114CADF80E10072119
:102E3C00ADF81C1020462946ADF816A0FEF782FD11
:102E4C0020463146FEF79DFD009B019AA8F81AB06A
:102E5C00A8F81A30A7F818A0A2F81890A8F818B07B
:102E6C0009B0BDE8F08F00BF000402400000024032
:102E7C00003001400008024070B50F4E0F4D761B1C
:102E8C00B61007D0043D0024013455F8043F984790
:102E9C00A642F9D10A4E0B4D00F02EF9761BB61056
:102EAC0008D0043D0024013455F8043F9847A6424D
:102EBC00F9D170BD70BD00BF1C3100081C31000879
:102ECC00243100081C310008024B13B1024800F0F9
:102EDC0005B8704700000000F52E000801460020E0
:102EEC000246034600F018B838B5094D094C641B6E
:102EFC00A41018BF05EB840505D0013C55F8043D22
:102F0C009847002CF9D1BDE8384000F0FBB800BF61
:102F1C002431000828310008F0B5274C85B026680C
:102F2C000746D6F84841002C40D065681F2D1EDDA1
:102F3C00224818B94FF0FF3005B0F0BD4FF4C870FF
:102F4C00039102920193AFF3008003990446029A15
:102F5C00019B0028EED0D6F8485100202560606017
:102F6C000546C6F84841C4F88801C4F88C013FB93D
:102F7C006B1C00200235636044F8251005B0F0BDD1
:102F8C000126AE4004EB8500C0F88820D4F88821D7
:102F9C00022F42EA0602C4F88821C0F80831E7D1B2
:102FAC00D4F88C311E43C4F88C61E1E706F5A674A5
:102FBC00C6F84841B9E700BF003100080000000026
:102FCC005B2B5D2057726974654275666665723A53
:102FDC002041647265737365203078253032782C0B
:102FEC00204E624F63746574732025640A005B2D58
:102FFC005D2052656164427566666572203A2041B7
:10300C00647265737365203078253032782C204ECD
:10301C00624F63746574732025640A005B2B5D201A
:10302C0047657453746174757320203A20426C6F39
:10303C00636B436F756E743D25642C20426C6F631B
:10304C006B53697A653D25640A000A5B2A5D204151
:10305C0075207265766F6972203B2D280A00040377
:10306C00090409022000010100C032090400000219
:10307C0008065004070581024000000705020240C3
:10308C0000002603530054004D0033003200200092
:10309C004D006100730073002000530074006F003A
:1030AC007200610067006500120100020000004020
:1030BC008304205700020102030110035300540043
:1030CC0020004D0061007300730026035300540070
:1030DC004D006900630072006F0065006C006500B4
:1030EC006300740072006F006E006900630073006F
:1030FC004300000048010020F8B500BFF8BC08BC34
:10310C009E467047F8B500BFF8BC08BC9E46704799
:08311C00D52E00083101000866
:043124000D01000891
:103128000006000000000000700000000000000A17
:103138000000000000000000000003000000000084
:1031480000080000000002000000008002022000C9
:10315800000043594D4559412020494E46524120CF
:103168004D4F44554C4520202020312E35200080DD
:1031780002022000000043594D4559412020494E84
:10318800465241204D4F44554C4520202020312E99
:1031980035201A03530054004D003300320000005C
:1031A800000000000000000000000000D50A000830
:1031B8002D2200082D2200082D2200082D220008AB
:1031C8002D2200082D2200082D220008D90A000807
:1031D8002D2200082D2200082D2200082D2200088B
:1031E8002D2200086E30000820000000CD0B0008DA
:1031F800F10B0008A10B0008A30B0008610D0008E3
:10320800150D0008A50B0008DD0C0008E90C0008E6
:10321800F50C00080000000040000000B430000871
:10322800120000006A30000804000000D6300008D0
:10323800260000008E3000082600000072000020E2
:103248001A000000C6300008100000000301030443
:1032580006080C10182030000000000102030401C9
:1032680002030406070809000000000034040020D7
:103278009C0400200405002000000000000000005D
:103288000000000000000000000000000000000036
:10329800000000000000000000000000FC300008F2
:1032A8000000000000000000000000000000000016
:1032B8000000000000000000000000000000000006
:1032C80000000000000000000000000000000000F6
:1032D80000000000000000000000000000000000E6
:1032E80000000000000000000000000000000000D6
:1032F80000000000000000000000000000000000C6
:1033080000000000000000000000000000000000B5
:1033180001000000000000000E33CDAB34126DE652
:10332800ECDE05000B0000000000000000000000BB
:103338000000000000000000000000000000000085
:103348000000000000000000000000000000000075
:103358000000000000000000000000000000000065
:103368000000000000000000000000000000000055
:04000005080001618D
:00000001FF
